{
    "_format": "hh-sol-artifact-1",
    "contractName": "SocialDApp",
    "sourceName": "contracts/socialMedia.sol",
    "abi": [
        {
            "anonymous": false,
            "inputs": [
                {
                    "indexed": true,
                    "internalType": "uint256",
                    "name": "postId",
                    "type": "uint256"
                },
                {
                    "indexed": true,
                    "internalType": "address",
                    "name": "author",
                    "type": "address"
                },
                {
                    "indexed": false,
                    "internalType": "string",
                    "name": "content",
                    "type": "string"
                }
            ],
            "name": "PostCreated",
            "type": "event"
        },
        {
            "anonymous": false,
            "inputs": [
                {
                    "indexed": true,
                    "internalType": "uint256",
                    "name": "postId",
                    "type": "uint256"
                },
                {
                    "indexed": true,
                    "internalType": "address",
                    "name": "author",
                    "type": "address"
                },
                {
                    "indexed": false,
                    "internalType": "string",
                    "name": "newContent",
                    "type": "string"
                }
            ],
            "name": "PostEdited",
            "type": "event"
        },
        {
            "anonymous": false,
            "inputs": [
                {
                    "indexed": true,
                    "internalType": "address",
                    "name": "user",
                    "type": "address"
                },
                {
                    "indexed": false,
                    "internalType": "string",
                    "name": "username",
                    "type": "string"
                }
            ],
            "name": "UserRegistered",
            "type": "event"
        },
        {
            "inputs": [
                {
                    "internalType": "string",
                    "name": "_content",
                    "type": "string"
                }
            ],
            "name": "createPost",
            "outputs": [],
            "stateMutability": "nonpayable",
            "type": "function"
        },
        {
            "inputs": [
                {
                    "internalType": "uint256",
                    "name": "_postId",
                    "type": "uint256"
                },
                {
                    "internalType": "string",
                    "name": "_newContent",
                    "type": "string"
                }
            ],
            "name": "editPost",
            "outputs": [],
            "stateMutability": "nonpayable",
            "type": "function"
        },
        {
            "inputs": [],
            "name": "getAllPosts",
            "outputs": [
                {
                    "internalType": "uint256[]",
                    "name": "ids",
                    "type": "uint256[]"
                },
                {
                    "internalType": "address[]",
                    "name": "authors",
                    "type": "address[]"
                },
                {
                    "internalType": "string[]",
                    "name": "contents",
                    "type": "string[]"
                },
                {
                    "internalType": "uint256[]",
                    "name": "timestamps",
                    "type": "uint256[]"
                }
            ],
            "stateMutability": "view",
            "type": "function"
        },
        {
            "inputs": [],
            "name": "getPlatformStats",
            "outputs": [
                {
                    "internalType": "uint256",
                    "name": "usersCount",
                    "type": "uint256"
                },
                {
                    "internalType": "uint256",
                    "name": "postsCount",
                    "type": "uint256"
                }
            ],
            "stateMutability": "view",
            "type": "function"
        },
        {
            "inputs": [
                {
                    "internalType": "uint256",
                    "name": "_postId",
                    "type": "uint256"
                }
            ],
            "name": "getPost",
            "outputs": [
                {
                    "internalType": "uint256",
                    "name": "id",
                    "type": "uint256"
                },
                {
                    "internalType": "address",
                    "name": "author",
                    "type": "address"
                },
                {
                    "internalType": "string",
                    "name": "content",
                    "type": "string"
                },
                {
                    "internalType": "uint256",
                    "name": "timestamp",
                    "type": "uint256"
                }
            ],
            "stateMutability": "view",
            "type": "function"
        },
        {
            "inputs": [
                {
                    "internalType": "address",
                    "name": "_user",
                    "type": "address"
                }
            ],
            "name": "getUserInfo",
            "outputs": [
                {
                    "internalType": "address",
                    "name": "userAddress",
                    "type": "address"
                },
                {
                    "internalType": "string",
                    "name": "username",
                    "type": "string"
                },
                {
                    "internalType": "bool",
                    "name": "isRegistered",
                    "type": "bool"
                },
                {
                    "internalType": "uint256",
                    "name": "postCount",
                    "type": "uint256"
                }
            ],
            "stateMutability": "view",
            "type": "function"
        },
        {
            "inputs": [
                {
                    "internalType": "address",
                    "name": "_user",
                    "type": "address"
                }
            ],
            "name": "getUserPosts",
            "outputs": [
                {
                    "internalType": "uint256[]",
                    "name": "",
                    "type": "uint256[]"
                }
            ],
            "stateMutability": "view",
            "type": "function"
        },
        {
            "inputs": [
                {
                    "internalType": "address",
                    "name": "_user",
                    "type": "address"
                }
            ],
            "name": "isUserRegistered",
            "outputs": [
                {
                    "internalType": "bool",
                    "name": "",
                    "type": "bool"
                }
            ],
            "stateMutability": "view",
            "type": "function"
        },
        {
            "inputs": [
                {
                    "internalType": "uint256",
                    "name": "",
                    "type": "uint256"
                }
            ],
            "name": "posts",
            "outputs": [
                {
                    "internalType": "uint256",
                    "name": "id",
                    "type": "uint256"
                },
                {
                    "internalType": "address",
                    "name": "author",
                    "type": "address"
                },
                {
                    "internalType": "string",
                    "name": "content",
                    "type": "string"
                },
                {
                    "internalType": "uint256",
                    "name": "timestamp",
                    "type": "uint256"
                },
                {
                    "internalType": "bool",
                    "name": "exists",
                    "type": "bool"
                }
            ],
            "stateMutability": "view",
            "type": "function"
        },
        {
            "inputs": [
                {
                    "internalType": "string",
                    "name": "_username",
                    "type": "string"
                }
            ],
            "name": "registerUser",
            "outputs": [],
            "stateMutability": "nonpayable",
            "type": "function"
        },
        {
            "inputs": [
                {
                    "internalType": "address",
                    "name": "",
                    "type": "address"
                }
            ],
            "name": "registeredUsers",
            "outputs": [
                {
                    "internalType": "bool",
                    "name": "",
                    "type": "bool"
                }
            ],
            "stateMutability": "view",
            "type": "function"
        },
        {
            "inputs": [],
            "name": "totalPosts",
            "outputs": [
                {
                    "internalType": "uint256",
                    "name": "",
                    "type": "uint256"
                }
            ],
            "stateMutability": "view",
            "type": "function"
        },
        {
            "inputs": [],
            "name": "totalUsers",
            "outputs": [
                {
                    "internalType": "uint256",
                    "name": "",
                    "type": "uint256"
                }
            ],
            "stateMutability": "view",
            "type": "function"
        },
        {
            "inputs": [
                {
                    "internalType": "address",
                    "name": "",
                    "type": "address"
                }
            ],
            "name": "users",
            "outputs": [
                {
                    "internalType": "address",
                    "name": "userAddress",
                    "type": "address"
                },
                {
                    "internalType": "string",
                    "name": "username",
                    "type": "string"
                },
                {
                    "internalType": "bool",
                    "name": "isRegistered",
                    "type": "bool"
                }
            ],
            "stateMutability": "view",
            "type": "function"
        }
    ],
    "bytecode": "0x6080604052348015600f57600080fd5b506125598061001f6000396000f3fe608060405234801561001057600080fd5b50600436106100ea5760003560e01c8063704f1b941161008c578063a87430ba11610066578063a87430ba14610293578063bff1f9e1146102c5578063c7303c61146102e3578063fa99654a146102ff576100ea565b8063704f1b94146102295780638e53fb41146102455780639a2194a914610263576100ea565b8063163f7522116100c8578063163f75221461017257806330561100146101a257806340731c24146101c35780636386c1c7146101f6576100ea565b80630b1e7f83146100ef5780630e50cee514610123578063136d888314610153575b600080fd5b6101096004803603810190610104919061166b565b61031b565b60405161011a959493929190611793565b60405180910390f35b61013d60048036038101906101389190611819565b610406565b60405161014a9190611846565b60405180910390f35b61015b610426565b604051610169929190611861565b60405180910390f35b61018c60048036038101906101879190611819565b610437565b6040516101999190611846565b60405180910390f35b6101aa61048d565b6040516101ba9493929190611b12565b60405180910390f35b6101dd60048036038101906101d8919061166b565b61083b565b6040516101ed9493929190611b73565b60405180910390f35b610210600480360381019061020b9190611819565b610a02565b6040516102209493929190611bbf565b60405180910390f35b610243600480360381019061023e9190611d40565b610bd6565b005b61024d610ec6565b60405161025a9190611d89565b60405180910390f35b61027d60048036038101906102789190611819565b610ecc565b60405161028a9190611da4565b60405180910390f35b6102ad60048036038101906102a89190611819565b610f65565b6040516102bc93929190611dc6565b60405180910390f35b6102cd611044565b6040516102da9190611d89565b60405180910390f35b6102fd60048036038101906102f89190611d40565b61104a565b005b61031960048036038101906103149190611e04565b611321565b005b60016020528060005260406000206000915090508060000154908060010160009054906101000a900473ffffffffffffffffffffffffffffffffffffffff169080600201805461036a90611e8f565b80601f016020809104026020016040519081016040528092919081815260200182805461039690611e8f565b80156103e35780601f106103b8576101008083540402835291602001916103e3565b820191906000526020600020905b8154815290600101906020018083116103c657829003601f168201915b5050505050908060030154908060040160009054906101000a900460ff16905085565b60026020528060005260406000206000915054906101000a900460ff1681565b600080600454915060035490509091565b6000600260008373ffffffffffffffffffffffffffffffffffffffff1673ffffffffffffffffffffffffffffffffffffffff16815260200190815260200160002060009054906101000a900460ff169050919050565b606080606080600080600190505b60035481116104ef576001600082815260200190815260200160002060040160009054906101000a900460ff16156104dc5781806104d890611eef565b9250505b80806104e790611eef565b91505061049b565b508067ffffffffffffffff81111561050a57610509611c15565b5b6040519080825280602002602001820160405280156105385781602001602082028036833780820191505090505b5094508067ffffffffffffffff81111561055557610554611c15565b5b6040519080825280602002602001820160405280156105835781602001602082028036833780820191505090505b5093508067ffffffffffffffff8111156105a05761059f611c15565b5b6040519080825280602002602001820160405280156105d357816020015b60608152602001906001900390816105be5790505b5092508067ffffffffffffffff8111156105f0576105ef611c15565b5b60405190808252806020026020018201604052801561061e5781602001602082028036833780820191505090505b50915060008060035490505b60018110610832576001600082815260200190815260200160002060040160009054906101000a900460ff161561081f57600160008281526020019081526020016000206000015487838151811061068557610684611f37565b5b6020026020010181815250506001600082815260200190815260200160002060010160009054906101000a900473ffffffffffffffffffffffffffffffffffffffff168683815181106106db576106da611f37565b5b602002602001019073ffffffffffffffffffffffffffffffffffffffff16908173ffffffffffffffffffffffffffffffffffffffff168152505060016000828152602001908152602001600020600201805461073690611e8f565b80601f016020809104026020016040519081016040528092919081815260200182805461076290611e8f565b80156107af5780601f10610784576101008083540402835291602001916107af565b820191906000526020600020905b81548152906001019060200180831161079257829003601f168201915b50505050508583815181106107c7576107c6611f37565b5b602002602001018190525060016000828152602001908152602001600020600301548483815181106107fc576107fb611f37565b5b602002602001018181525050818061081390611eef565b92505082821015610832575b808061082a90611f66565b91505061062a565b50505090919293565b600080606060006001600086815260200190815260200160002060040160009054906101000a900460ff166108a5576040517f08c379a000000000000000000000000000000000000000000000000000000000815260040161089c90611fdb565b60405180910390fd5b6000600160008781526020019081526020016000206040518060a0016040529081600082015481526020016001820160009054906101000a900473ffffffffffffffffffffffffffffffffffffffff1673ffffffffffffffffffffffffffffffffffffffff1673ffffffffffffffffffffffffffffffffffffffff16815260200160028201805461093590611e8f565b80601f016020809104026020016040519081016040528092919081815260200182805461096190611e8f565b80156109ae5780601f10610983576101008083540402835291602001916109ae565b820191906000526020600020905b81548152906001019060200180831161099157829003601f168201915b50505050508152602001600382015481526020016004820160009054906101000a900460ff161515151581525050905080600001518160200151826040015183606001519450945094509450509193509193565b6000606060008060008060008773ffffffffffffffffffffffffffffffffffffffff1673ffffffffffffffffffffffffffffffffffffffff1681526020019081526020016000206040518060800160405290816000820160009054906101000a900473ffffffffffffffffffffffffffffffffffffffff1673ffffffffffffffffffffffffffffffffffffffff1673ffffffffffffffffffffffffffffffffffffffff168152602001600182018054610aba90611e8f565b80601f0160208091040260200160405190810160405280929190818152602001828054610ae690611e8f565b8015610b335780601f10610b0857610100808354040283529160200191610b33565b820191906000526020600020905b815481529060010190602001808311610b1657829003601f168201915b505050505081526020016002820160009054906101000a900460ff1615151515815260200160038201805480602002602001604051908101604052809291908181526020018280548015610ba657602002820191906000526020600020905b815481526020019060010190808311610b92575b50505050508152505090508060000151816020015182604001518360600151519450945094509450509193509193565b600260003373ffffffffffffffffffffffffffffffffffffffff1673ffffffffffffffffffffffffffffffffffffffff16815260200190815260200160002060009054906101000a900460ff1615610c63576040517f08c379a0000000000000000000000000000000000000000000000000000000008152600401610c5a90612047565b60405180910390fd5b6000815111610ca7576040517f08c379a0000000000000000000000000000000000000000000000000000000008152600401610c9e906120b3565b60405180910390fd5b60405180608001604052803373ffffffffffffffffffffffffffffffffffffffff168152602001828152602001600115158152602001600067ffffffffffffffff811115610cf857610cf7611c15565b5b604051908082528060200260200182016040528015610d265781602001602082028036833780820191505090505b508152506000803373ffffffffffffffffffffffffffffffffffffffff1673ffffffffffffffffffffffffffffffffffffffff16815260200190815260200160002060008201518160000160006101000a81548173ffffffffffffffffffffffffffffffffffffffff021916908373ffffffffffffffffffffffffffffffffffffffff1602179055506020820151816001019081610dc4919061227f565b5060408201518160020160006101000a81548160ff0219169083151502179055506060820151816003019080519060200190610e019291906115b7565b509050506001600260003373ffffffffffffffffffffffffffffffffffffffff1673ffffffffffffffffffffffffffffffffffffffff16815260200190815260200160002060006101000a81548160ff02191690831515021790555060046000815480929190610e7090611eef565b91905055503373ffffffffffffffffffffffffffffffffffffffff167f48cac28ad4dc618e15f4c2dd5e97751182f166de97b25618318b2112aa951a2f82604051610ebb9190612351565b60405180910390a250565b60035481565b60606000808373ffffffffffffffffffffffffffffffffffffffff1673ffffffffffffffffffffffffffffffffffffffff168152602001908152602001600020600301805480602002602001604051908101604052809291908181526020018280548015610f5957602002820191906000526020600020905b815481526020019060010190808311610f45575b50505050509050919050565b60006020528060005260406000206000915090508060000160009054906101000a900473ffffffffffffffffffffffffffffffffffffffff1690806001018054610fae90611e8f565b80601f0160208091040260200160405190810160405280929190818152602001828054610fda90611e8f565b80156110275780601f10610ffc57610100808354040283529160200191611027565b820191906000526020600020905b81548152906001019060200180831161100a57829003601f168201915b5050505050908060020160009054906101000a900460ff16905083565b60045481565b600260003373ffffffffffffffffffffffffffffffffffffffff1673ffffffffffffffffffffffffffffffffffffffff16815260200190815260200160002060009054906101000a900460ff166110d6576040517f08c379a00000000000000000000000000000000000000000000000000000000081526004016110cd906123bf565b60405180910390fd5b600081511161111a576040517f08c379a00000000000000000000000000000000000000000000000000000000081526004016111119061242b565b60405180910390fd5b6103e881511115611160576040517f08c379a000000000000000000000000000000000000000000000000000000000815260040161115790612497565b60405180910390fd5b6003600081548092919061117390611eef565b91905055506040518060a0016040528060035481526020013373ffffffffffffffffffffffffffffffffffffffff168152602001828152602001428152602001600115158152506001600060035481526020019081526020016000206000820151816000015560208201518160010160006101000a81548173ffffffffffffffffffffffffffffffffffffffff021916908373ffffffffffffffffffffffffffffffffffffffff1602179055506040820151816002019081611235919061227f565b506060820151816003015560808201518160040160006101000a81548160ff0219169083151502179055509050506000803373ffffffffffffffffffffffffffffffffffffffff1673ffffffffffffffffffffffffffffffffffffffff16815260200190815260200160002060030160035490806001815401808255809150506001900390600052602060002001600090919091909150553373ffffffffffffffffffffffffffffffffffffffff166003547f8e40a51278abe2f4b410c0a96ff0bdd024b22666ca334062bf72afd596984bd6836040516113169190612351565b60405180910390a350565b600260003373ffffffffffffffffffffffffffffffffffffffff1673ffffffffffffffffffffffffffffffffffffffff16815260200190815260200160002060009054906101000a900460ff166113ad576040517f08c379a00000000000000000000000000000000000000000000000000000000081526004016113a4906123bf565b60405180910390fd5b816001600082815260200190815260200160002060040160009054906101000a900460ff16611411576040517f08c379a000000000000000000000000000000000000000000000000000000000815260040161140890611fdb565b60405180910390fd5b3373ffffffffffffffffffffffffffffffffffffffff166001600083815260200190815260200160002060010160009054906101000a900473ffffffffffffffffffffffffffffffffffffffff1673ffffffffffffffffffffffffffffffffffffffff16146114b5576040517f08c379a00000000000000000000000000000000000000000000000000000000081526004016114ac90612503565b60405180910390fd5b60008251116114f9576040517f08c379a00000000000000000000000000000000000000000000000000000000081526004016114f09061242b565b60405180910390fd5b6103e88251111561153f576040517f08c379a000000000000000000000000000000000000000000000000000000000815260040161153690612497565b60405180910390fd5b81600160008581526020019081526020016000206002019081611562919061227f565b503373ffffffffffffffffffffffffffffffffffffffff16837fc7931b4f20484d9753f780534a76cc5a97feb26c3ca558bb2cb5fa326d8b133b846040516115aa9190612351565b60405180910390a3505050565b8280548282559060005260206000209081019282156115f3579160200282015b828111156115f25782518255916020019190600101906115d7565b5b5090506116009190611604565b5090565b5b8082111561161d576000816000905550600101611605565b5090565b6000604051905090565b600080fd5b600080fd5b6000819050919050565b61164881611635565b811461165357600080fd5b50565b6000813590506116658161163f565b92915050565b6000602082840312156116815761168061162b565b5b600061168f84828501611656565b91505092915050565b6116a181611635565b82525050565b600073ffffffffffffffffffffffffffffffffffffffff82169050919050565b60006116d2826116a7565b9050919050565b6116e2816116c7565b82525050565b600081519050919050565b600082825260208201905092915050565b60005b83811015611722578082015181840152602081019050611707565b60008484015250505050565b6000601f19601f8301169050919050565b600061174a826116e8565b61175481856116f3565b9350611764818560208601611704565b61176d8161172e565b840191505092915050565b60008115159050919050565b61178d81611778565b82525050565b600060a0820190506117a86000830188611698565b6117b560208301876116d9565b81810360408301526117c7818661173f565b90506117d66060830185611698565b6117e36080830184611784565b9695505050505050565b6117f6816116c7565b811461180157600080fd5b50565b600081359050611813816117ed565b92915050565b60006020828403121561182f5761182e61162b565b5b600061183d84828501611804565b91505092915050565b600060208201905061185b6000830184611784565b92915050565b60006040820190506118766000830185611698565b6118836020830184611698565b9392505050565b600081519050919050565b600082825260208201905092915050565b6000819050602082019050919050565b6118bf81611635565b82525050565b60006118d183836118b6565b60208301905092915050565b6000602082019050919050565b60006118f58261188a565b6118ff8185611895565b935061190a836118a6565b8060005b8381101561193b57815161192288826118c5565b975061192d836118dd565b92505060018101905061190e565b5085935050505092915050565b600081519050919050565b600082825260208201905092915050565b6000819050602082019050919050565b61197d816116c7565b82525050565b600061198f8383611974565b60208301905092915050565b6000602082019050919050565b60006119b382611948565b6119bd8185611953565b93506119c883611964565b8060005b838110156119f95781516119e08882611983565b97506119eb8361199b565b9250506001810190506119cc565b5085935050505092915050565b600081519050919050565b600082825260208201905092915050565b6000819050602082019050919050565b600082825260208201905092915050565b6000611a4e826116e8565b611a588185611a32565b9350611a68818560208601611704565b611a718161172e565b840191505092915050565b6000611a888383611a43565b905092915050565b6000602082019050919050565b6000611aa882611a06565b611ab28185611a11565b935083602082028501611ac485611a22565b8060005b85811015611b005784840389528151611ae18582611a7c565b9450611aec83611a90565b925060208a01995050600181019050611ac8565b50829750879550505050505092915050565b60006080820190508181036000830152611b2c81876118ea565b90508181036020830152611b4081866119a8565b90508181036040830152611b548185611a9d565b90508181036060830152611b6881846118ea565b905095945050505050565b6000608082019050611b886000830187611698565b611b9560208301866116d9565b8181036040830152611ba7818561173f565b9050611bb66060830184611698565b95945050505050565b6000608082019050611bd460008301876116d9565b8181036020830152611be6818661173f565b9050611bf56040830185611784565b611c026060830184611698565b95945050505050565b600080fd5b600080fd5b7f4e487b7100000000000000000000000000000000000000000000000000000000600052604160045260246000fd5b611c4d8261172e565b810181811067ffffffffffffffff82111715611c6c57611c6b611c15565b5b80604052505050565b6000611c7f611621565b9050611c8b8282611c44565b919050565b600067ffffffffffffffff821115611cab57611caa611c15565b5b611cb48261172e565b9050602081019050919050565b82818337600083830152505050565b6000611ce3611cde84611c90565b611c75565b905082815260208101848484011115611cff57611cfe611c10565b5b611d0a848285611cc1565b509392505050565b600082601f830112611d2757611d26611c0b565b5b8135611d37848260208601611cd0565b91505092915050565b600060208284031215611d5657611d5561162b565b5b600082013567ffffffffffffffff811115611d7457611d73611630565b5b611d8084828501611d12565b91505092915050565b6000602082019050611d9e6000830184611698565b92915050565b60006020820190508181036000830152611dbe81846118ea565b905092915050565b6000606082019050611ddb60008301866116d9565b8181036020830152611ded818561173f565b9050611dfc6040830184611784565b949350505050565b60008060408385031215611e1b57611e1a61162b565b5b6000611e2985828601611656565b925050602083013567ffffffffffffffff811115611e4a57611e49611630565b5b611e5685828601611d12565b9150509250929050565b7f4e487b7100000000000000000000000000000000000000000000000000000000600052602260045260246000fd5b60006002820490506001821680611ea757607f821691505b602082108103611eba57611eb9611e60565b5b50919050565b7f4e487b7100000000000000000000000000000000000000000000000000000000600052601160045260246000fd5b6000611efa82611635565b91507fffffffffffffffffffffffffffffffffffffffffffffffffffffffffffffffff8203611f2c57611f2b611ec0565b5b600182019050919050565b7f4e487b7100000000000000000000000000000000000000000000000000000000600052603260045260246000fd5b6000611f7182611635565b915060008203611f8457611f83611ec0565b5b600182039050919050565b7f506f737420646f6573206e6f7420657869737400000000000000000000000000600082015250565b6000611fc56013836116f3565b9150611fd082611f8f565b602082019050919050565b60006020820190508181036000830152611ff481611fb8565b9050919050565b7f5573657220616c72656164792072656769737465726564000000000000000000600082015250565b60006120316017836116f3565b915061203c82611ffb565b602082019050919050565b6000602082019050818103600083015261206081612024565b9050919050565b7f557365726e616d652063616e6e6f7420626520656d7074790000000000000000600082015250565b600061209d6018836116f3565b91506120a882612067565b602082019050919050565b600060208201905081810360008301526120cc81612090565b9050919050565b60008190508160005260206000209050919050565b60006020601f8301049050919050565b600082821b905092915050565b6000600883026121357fffffffffffffffffffffffffffffffffffffffffffffffffffffffffffffffff826120f8565b61213f86836120f8565b95508019841693508086168417925050509392505050565b6000819050919050565b600061217c61217761217284611635565b612157565b611635565b9050919050565b6000819050919050565b61219683612161565b6121aa6121a282612183565b848454612105565b825550505050565b600090565b6121bf6121b2565b6121ca81848461218d565b505050565b5b818110156121ee576121e36000826121b7565b6001810190506121d0565b5050565b601f82111561223357612204816120d3565b61220d846120e8565b8101602085101561221c578190505b612230612228856120e8565b8301826121cf565b50505b505050565b600082821c905092915050565b600061225660001984600802612238565b1980831691505092915050565b600061226f8383612245565b9150826002028217905092915050565b612288826116e8565b67ffffffffffffffff8111156122a1576122a0611c15565b5b6122ab8254611e8f565b6122b68282856121f2565b600060209050601f8311600181146122e957600084156122d7578287015190505b6122e18582612263565b865550612349565b601f1984166122f7866120d3565b60005b8281101561231f578489015182556001820191506020850194506020810190506122fa565b8683101561233c5784890151612338601f891682612245565b8355505b6001600288020188555050505b505050505050565b6000602082019050818103600083015261236b818461173f565b905092915050565b7f55736572206e6f74207265676973746572656400000000000000000000000000600082015250565b60006123a96013836116f3565b91506123b482612373565b602082019050919050565b600060208201905081810360008301526123d88161239c565b9050919050565b7f506f737420636f6e74656e742063616e6e6f7420626520656d70747900000000600082015250565b6000612415601c836116f3565b9150612420826123df565b602082019050919050565b6000602082019050818103600083015261244481612408565b9050919050565b7f506f737420636f6e74656e7420746f6f206c6f6e670000000000000000000000600082015250565b60006124816015836116f3565b915061248c8261244b565b602082019050919050565b600060208201905081810360008301526124b081612474565b9050919050565b7f4e6f742074686520617574686f72206f66207468697320706f73740000000000600082015250565b60006124ed601b836116f3565b91506124f8826124b7565b602082019050919050565b6000602082019050818103600083015261251c816124e0565b905091905056fea26469706673582212201401248c6fe147393e1bb6ca5ca5f98c3aebb7090a1327c8acbe2afdc13c4fc264736f6c634300081c0033",
    "linkReferences": {},
    "deployedLinkReferences": {}
}