{
  "_format": "hh-sol-artifact-1",
  "contractName": "SocialDApp",
  "sourceName": "contracts/socialMedia.sol",
  "abi": [
    {
      "anonymous": false,
      "inputs": [
        {
          "indexed": true,
          "internalType": "uint256",
          "name": "postId",
          "type": "uint256"
        },
        {
          "indexed": true,
          "internalType": "address",
          "name": "author",
          "type": "address"
        },
        {
          "indexed": false,
          "internalType": "string",
          "name": "content",
          "type": "string"
        }
      ],
      "name": "PostCreated",
      "type": "event"
    },
    {
      "anonymous": false,
      "inputs": [
        {
          "indexed": true,
          "internalType": "uint256",
          "name": "postId",
          "type": "uint256"
        },
        {
          "indexed": true,
          "internalType": "address",
          "name": "author",
          "type": "address"
        },
        {
          "indexed": false,
          "internalType": "string",
          "name": "newContent",
          "type": "string"
        }
      ],
      "name": "PostEdited",
      "type": "event"
    },
    {
      "anonymous": false,
      "inputs": [
        {
          "indexed": true,
          "internalType": "uint256",
          "name": "postId",
          "type": "uint256"
        },
        {
          "indexed": true,
          "internalType": "address",
          "name": "giver",
          "type": "address"
        },
        {
          "indexed": true,
          "internalType": "address",
          "name": "receiver",
          "type": "address"
        },
        {
          "indexed": false,
          "internalType": "uint256",
          "name": "amount",
          "type": "uint256"
        }
      ],
      "name": "TippingGiven",
      "type": "event"
    },
    {
      "anonymous": false,
      "inputs": [
        {
          "indexed": true,
          "internalType": "address",
          "name": "user",
          "type": "address"
        },
        {
          "indexed": false,
          "internalType": "uint256",
          "name": "amount",
          "type": "uint256"
        }
      ],
      "name": "TippingWithdrawn",
      "type": "event"
    },
    {
      "anonymous": false,
      "inputs": [
        {
          "indexed": true,
          "internalType": "address",
          "name": "user",
          "type": "address"
        },
        {
          "indexed": false,
          "internalType": "string",
          "name": "username",
          "type": "string"
        }
      ],
      "name": "UserRegistered",
      "type": "event"
    },
    {
      "inputs": [
        {
          "internalType": "string",
          "name": "_content",
          "type": "string"
        },
        {
          "internalType": "string",
          "name": "_mediaHash",
          "type": "string"
        },
        {
          "internalType": "string",
          "name": "_mediaType",
          "type": "string"
        }
      ],
      "name": "createPost",
      "outputs": [],
      "stateMutability": "nonpayable",
      "type": "function"
    },
    {
      "inputs": [
        {
          "internalType": "uint256",
          "name": "_postId",
          "type": "uint256"
        },
        {
          "internalType": "string",
          "name": "_newContent",
          "type": "string"
        }
      ],
      "name": "editPost",
      "outputs": [],
      "stateMutability": "nonpayable",
      "type": "function"
    },
    {
      "inputs": [],
      "name": "getAllPosts",
      "outputs": [
        {
          "internalType": "uint256[]",
          "name": "ids",
          "type": "uint256[]"
        },
        {
          "internalType": "address[]",
          "name": "authors",
          "type": "address[]"
        },
        {
          "internalType": "string[]",
          "name": "contents",
          "type": "string[]"
        },
        {
          "internalType": "string[]",
          "name": "mediaHashes",
          "type": "string[]"
        },
        {
          "internalType": "string[]",
          "name": "mediaTypes",
          "type": "string[]"
        },
        {
          "internalType": "uint256[]",
          "name": "timestamps",
          "type": "uint256[]"
        },
        {
          "internalType": "uint256[]",
          "name": "totalTippingArray",
          "type": "uint256[]"
        }
      ],
      "stateMutability": "view",
      "type": "function"
    },
    {
      "inputs": [],
      "name": "getPlatformStats",
      "outputs": [
        {
          "internalType": "uint256",
          "name": "usersCount",
          "type": "uint256"
        },
        {
          "internalType": "uint256",
          "name": "postsCount",
          "type": "uint256"
        }
      ],
      "stateMutability": "view",
      "type": "function"
    },
    {
      "inputs": [
        {
          "internalType": "uint256",
          "name": "_postId",
          "type": "uint256"
        }
      ],
      "name": "getPost",
      "outputs": [
        {
          "internalType": "uint256",
          "name": "id",
          "type": "uint256"
        },
        {
          "internalType": "address",
          "name": "author",
          "type": "address"
        },
        {
          "internalType": "string",
          "name": "content",
          "type": "string"
        },
        {
          "internalType": "string",
          "name": "mediaHash",
          "type": "string"
        },
        {
          "internalType": "string",
          "name": "mediaType",
          "type": "string"
        },
        {
          "internalType": "uint256",
          "name": "timestamp",
          "type": "uint256"
        },
        {
          "internalType": "uint256",
          "name": "totalTipping",
          "type": "uint256"
        }
      ],
      "stateMutability": "view",
      "type": "function"
    },
    {
      "inputs": [
        {
          "internalType": "uint256",
          "name": "_postId",
          "type": "uint256"
        }
      ],
      "name": "getPostTipping",
      "outputs": [
        {
          "internalType": "uint256",
          "name": "totalTipping",
          "type": "uint256"
        },
        {
          "internalType": "uint256",
          "name": "userTipping",
          "type": "uint256"
        }
      ],
      "stateMutability": "view",
      "type": "function"
    },
    {
      "inputs": [
        {
          "internalType": "address",
          "name": "_user",
          "type": "address"
        }
      ],
      "name": "getUserInfo",
      "outputs": [
        {
          "internalType": "address",
          "name": "userAddress",
          "type": "address"
        },
        {
          "internalType": "string",
          "name": "username",
          "type": "string"
        },
        {
          "internalType": "bool",
          "name": "isRegistered",
          "type": "bool"
        },
        {
          "internalType": "uint256",
          "name": "postCount",
          "type": "uint256"
        },
        {
          "internalType": "uint256",
          "name": "totalTipping",
          "type": "uint256"
        },
        {
          "internalType": "uint256",
          "name": "withdrawnTipping",
          "type": "uint256"
        }
      ],
      "stateMutability": "view",
      "type": "function"
    },
    {
      "inputs": [
        {
          "internalType": "address",
          "name": "_user",
          "type": "address"
        }
      ],
      "name": "getUserPosts",
      "outputs": [
        {
          "internalType": "uint256[]",
          "name": "",
          "type": "uint256[]"
        }
      ],
      "stateMutability": "view",
      "type": "function"
    },
    {
      "inputs": [
        {
          "internalType": "address",
          "name": "_user",
          "type": "address"
        }
      ],
      "name": "getUserTipping",
      "outputs": [
        {
          "internalType": "uint256",
          "name": "totalTipping",
          "type": "uint256"
        },
        {
          "internalType": "uint256",
          "name": "withdrawnTipping",
          "type": "uint256"
        },
        {
          "internalType": "uint256",
          "name": "availableTipping",
          "type": "uint256"
        }
      ],
      "stateMutability": "view",
      "type": "function"
    },
    {
      "inputs": [
        {
          "internalType": "uint256",
          "name": "_postId",
          "type": "uint256"
        }
      ],
      "name": "giveTipping",
      "outputs": [],
      "stateMutability": "payable",
      "type": "function"
    },
    {
      "inputs": [
        {
          "internalType": "address",
          "name": "_user",
          "type": "address"
        }
      ],
      "name": "isUserRegistered",
      "outputs": [
        {
          "internalType": "bool",
          "name": "",
          "type": "bool"
        }
      ],
      "stateMutability": "view",
      "type": "function"
    },
    {
      "inputs": [
        {
          "internalType": "uint256",
          "name": "",
          "type": "uint256"
        },
        {
          "internalType": "address",
          "name": "",
          "type": "address"
        }
      ],
      "name": "postTipping",
      "outputs": [
        {
          "internalType": "uint256",
          "name": "",
          "type": "uint256"
        }
      ],
      "stateMutability": "view",
      "type": "function"
    },
    {
      "inputs": [
        {
          "internalType": "uint256",
          "name": "",
          "type": "uint256"
        }
      ],
      "name": "posts",
      "outputs": [
        {
          "internalType": "uint256",
          "name": "id",
          "type": "uint256"
        },
        {
          "internalType": "address",
          "name": "author",
          "type": "address"
        },
        {
          "internalType": "string",
          "name": "content",
          "type": "string"
        },
        {
          "internalType": "uint256",
          "name": "timestamp",
          "type": "uint256"
        },
        {
          "internalType": "string",
          "name": "mediaHash",
          "type": "string"
        },
        {
          "internalType": "string",
          "name": "mediaType",
          "type": "string"
        },
        {
          "internalType": "bool",
          "name": "exists",
          "type": "bool"
        },
        {
          "internalType": "uint256",
          "name": "totalTipping",
          "type": "uint256"
        }
      ],
      "stateMutability": "view",
      "type": "function"
    },
    {
      "inputs": [
        {
          "internalType": "string",
          "name": "_username",
          "type": "string"
        }
      ],
      "name": "registerUser",
      "outputs": [],
      "stateMutability": "nonpayable",
      "type": "function"
    },
    {
      "inputs": [
        {
          "internalType": "address",
          "name": "",
          "type": "address"
        }
      ],
      "name": "registeredUsers",
      "outputs": [
        {
          "internalType": "bool",
          "name": "",
          "type": "bool"
        }
      ],
      "stateMutability": "view",
      "type": "function"
    },
    {
      "inputs": [],
      "name": "totalPosts",
      "outputs": [
        {
          "internalType": "uint256",
          "name": "",
          "type": "uint256"
        }
      ],
      "stateMutability": "view",
      "type": "function"
    },
    {
      "inputs": [],
      "name": "totalUsers",
      "outputs": [
        {
          "internalType": "uint256",
          "name": "",
          "type": "uint256"
        }
      ],
      "stateMutability": "view",
      "type": "function"
    },
    {
      "inputs": [
        {
          "internalType": "address",
          "name": "",
          "type": "address"
        }
      ],
      "name": "users",
      "outputs": [
        {
          "internalType": "address",
          "name": "userAddress",
          "type": "address"
        },
        {
          "internalType": "string",
          "name": "username",
          "type": "string"
        },
        {
          "internalType": "bool",
          "name": "isRegistered",
          "type": "bool"
        },
        {
          "internalType": "uint256",
          "name": "totalTipping",
          "type": "uint256"
        },
        {
          "internalType": "uint256",
          "name": "withdrawnTipping",
          "type": "uint256"
        }
      ],
      "stateMutability": "view",
      "type": "function"
    },
    {
      "inputs": [],
      "name": "withdrawTipping",
      "outputs": [],
      "stateMutability": "nonpayable",
      "type": "function"
    },
    {
      "stateMutability": "payable",
      "type": "receive"
    }
  ],
  "bytecode": "0x6080604052348015600f57600080fd5b50613cf38061001f6000396000f3fe6080604052600436106101185760003560e01c806372cf8e94116100a0578063b75969a711610064578063b75969a71461042d578063bd6b15de1461046c578063bff1f9e114610483578063e8a4a1eb146104ae578063fa99654a146104d75761011f565b806372cf8e94146103095780638e53fb41146103475780639a2194a914610372578063a87430ba146103af578063b49b98b0146103f05761011f565b8063163f7522116100e7578063163f7522146101ed578063305611001461022a57806340731c241461025b5780636386c1c71461029e578063704f1b94146102e05761011f565b806307c4ac3c146101245780630b1e7f83146101405780630e50cee514610184578063136d8883146101c15761011f565b3661011f57005b600080fd5b61013e6004803603810190610139919061290f565b610500565b005b34801561014c57600080fd5b506101676004803603810190610162919061290f565b61087f565b60405161017b989796959493929190612a37565b60405180910390f35b34801561019057600080fd5b506101ab60048036038101906101a69190612af6565b610a8c565b6040516101b89190612b23565b60405180910390f35b3480156101cd57600080fd5b506101d6610aac565b6040516101e4929190612b3e565b60405180910390f35b3480156101f957600080fd5b50610214600480360381019061020f9190612af6565b610abd565b6040516102219190612b23565b60405180910390f35b34801561023657600080fd5b5061023f610b13565b6040516102529796959493929190612def565b60405180910390f35b34801561026757600080fd5b50610282600480360381019061027d919061290f565b6115cd565b6040516102959796959493929190612e8f565b60405180910390f35b3480156102aa57600080fd5b506102c560048036038101906102c09190612af6565b611850565b6040516102d796959493929190612f13565b60405180910390f35b3480156102ec57600080fd5b50610307600480360381019061030291906130b0565b611a4b565b005b34801561031557600080fd5b50610330600480360381019061032b919061290f565b611d5d565b60405161033e929190612b3e565b60405180910390f35b34801561035357600080fd5b5061035c611e3a565b60405161036991906130f9565b60405180910390f35b34801561037e57600080fd5b5061039960048036038101906103949190612af6565b611e40565b6040516103a69190613114565b60405180910390f35b3480156103bb57600080fd5b506103d660048036038101906103d19190612af6565b611ed9565b6040516103e7959493929190613136565b60405180910390f35b3480156103fc57600080fd5b5061041760048036038101906104129190613190565b611fc4565b60405161042491906130f9565b60405180910390f35b34801561043957600080fd5b50610454600480360381019061044f9190612af6565b611fe9565b604051610463939291906131d0565b60405180910390f35b34801561047857600080fd5b5061048161205b565b005b34801561048f57600080fd5b50610498612290565b6040516104a591906130f9565b60405180910390f35b3480156104ba57600080fd5b506104d560048036038101906104d09190613207565b612296565b005b3480156104e357600080fd5b506104fe60048036038101906104f991906132ae565b6125c5565b005b600360003373ffffffffffffffffffffffffffffffffffffffff1673ffffffffffffffffffffffffffffffffffffffff16815260200190815260200160002060009054906101000a900460ff1661058c576040517f08c379a000000000000000000000000000000000000000000000000000000000815260040161058390613356565b60405180910390fd5b600034116105cf576040517f08c379a00000000000000000000000000000000000000000000000000000000081526004016105c6906133e8565b60405180910390fd5b6001600082815260200190815260200160002060060160009054906101000a900460ff16610632576040517f08c379a000000000000000000000000000000000000000000000000000000000815260040161062990613454565b60405180910390fd5b3373ffffffffffffffffffffffffffffffffffffffff166001600083815260200190815260200160002060010160009054906101000a900473ffffffffffffffffffffffffffffffffffffffff1673ffffffffffffffffffffffffffffffffffffffff16036106d6576040517f08c379a00000000000000000000000000000000000000000000000000000000081526004016106cd906134c0565b60405180910390fd5b600060016000838152602001908152602001600020905034816007016000828254610701919061350f565b92505081905550346002600084815260200190815260200160002060003373ffffffffffffffffffffffffffffffffffffffff1673ffffffffffffffffffffffffffffffffffffffff1681526020019081526020016000206000828254610768919061350f565b9250508190555060008060008360010160009054906101000a900473ffffffffffffffffffffffffffffffffffffffff1673ffffffffffffffffffffffffffffffffffffffff1673ffffffffffffffffffffffffffffffffffffffff1681526020019081526020016000209050348160040160008282546107e9919061350f565b925050819055508160010160009054906101000a900473ffffffffffffffffffffffffffffffffffffffff1673ffffffffffffffffffffffffffffffffffffffff163373ffffffffffffffffffffffffffffffffffffffff16847f8f307cc9d095a6a4784dafe7636e0bc06602d3bb41141836a765a270ed0d44f53460405161087291906130f9565b60405180910390a4505050565b60016020528060005260406000206000915090508060000154908060010160009054906101000a900473ffffffffffffffffffffffffffffffffffffffff16908060020180546108ce90613572565b80601f01602080910402602001604051908101604052809291908181526020018280546108fa90613572565b80156109475780601f1061091c57610100808354040283529160200191610947565b820191906000526020600020905b81548152906001019060200180831161092a57829003601f168201915b50505050509080600301549080600401805461096290613572565b80601f016020809104026020016040519081016040528092919081815260200182805461098e90613572565b80156109db5780601f106109b0576101008083540402835291602001916109db565b820191906000526020600020905b8154815290600101906020018083116109be57829003601f168201915b5050505050908060050180546109f090613572565b80601f0160208091040260200160405190810160405280929190818152602001828054610a1c90613572565b8015610a695780601f10610a3e57610100808354040283529160200191610a69565b820191906000526020600020905b815481529060010190602001808311610a4c57829003601f168201915b5050505050908060060160009054906101000a900460ff16908060070154905088565b60036020528060005260406000206000915054906101000a900460ff1681565b600080600554600454915091509091565b6000600360008373ffffffffffffffffffffffffffffffffffffffff1673ffffffffffffffffffffffffffffffffffffffff16815260200190815260200160002060009054906101000a900460ff169050919050565b6060806060806060806060600060045403610d5057600067ffffffffffffffff811115610b4357610b42612f85565b5b604051908082528060200260200182016040528015610b715781602001602082028036833780820191505090505b50600067ffffffffffffffff811115610b8d57610b8c612f85565b5b604051908082528060200260200182016040528015610bbb5781602001602082028036833780820191505090505b50600067ffffffffffffffff811115610bd757610bd6612f85565b5b604051908082528060200260200182016040528015610c0a57816020015b6060815260200190600190039081610bf55790505b50600067ffffffffffffffff811115610c2657610c25612f85565b5b604051908082528060200260200182016040528015610c5957816020015b6060815260200190600190039081610c445790505b50600067ffffffffffffffff811115610c7557610c74612f85565b5b604051908082528060200260200182016040528015610ca857816020015b6060815260200190600190039081610c935790505b50600067ffffffffffffffff811115610cc457610cc3612f85565b5b604051908082528060200260200182016040528015610cf25781602001602082028036833780820191505090505b50600067ffffffffffffffff811115610d0e57610d0d612f85565b5b604051908082528060200260200182016040528015610d3c5781602001602082028036833780820191505090505b5096509650965096509650965096506115c4565b600080600190505b6004548111610dac576001600082815260200190815260200160002060060160009054906101000a900460ff1615610d99578180610d95906135a3565b9250505b8080610da4906135a3565b915050610d58565b5060008103610fde57600067ffffffffffffffff811115610dd057610dcf612f85565b5b604051908082528060200260200182016040528015610dfe5781602001602082028036833780820191505090505b50600067ffffffffffffffff811115610e1a57610e19612f85565b5b604051908082528060200260200182016040528015610e485781602001602082028036833780820191505090505b50600067ffffffffffffffff811115610e6457610e63612f85565b5b604051908082528060200260200182016040528015610e9757816020015b6060815260200190600190039081610e825790505b50600067ffffffffffffffff811115610eb357610eb2612f85565b5b604051908082528060200260200182016040528015610ee657816020015b6060815260200190600190039081610ed15790505b50600067ffffffffffffffff811115610f0257610f01612f85565b5b604051908082528060200260200182016040528015610f3557816020015b6060815260200190600190039081610f205790505b50600067ffffffffffffffff811115610f5157610f50612f85565b5b604051908082528060200260200182016040528015610f7f5781602001602082028036833780820191505090505b50600067ffffffffffffffff811115610f9b57610f9a612f85565b5b604051908082528060200260200182016040528015610fc95781602001602082028036833780820191505090505b509750975097509750975097509750506115c4565b8067ffffffffffffffff811115610ff857610ff7612f85565b5b6040519080825280602002602001820160405280156110265781602001602082028036833780820191505090505b5097508067ffffffffffffffff81111561104357611042612f85565b5b6040519080825280602002602001820160405280156110715781602001602082028036833780820191505090505b5096508067ffffffffffffffff81111561108e5761108d612f85565b5b6040519080825280602002602001820160405280156110c157816020015b60608152602001906001900390816110ac5790505b5095508067ffffffffffffffff8111156110de576110dd612f85565b5b60405190808252806020026020018201604052801561111157816020015b60608152602001906001900390816110fc5790505b5094508067ffffffffffffffff81111561112e5761112d612f85565b5b60405190808252806020026020018201604052801561116157816020015b606081526020019060019003908161114c5790505b5093508067ffffffffffffffff81111561117e5761117d612f85565b5b6040519080825280602002602001820160405280156111ac5781602001602082028036833780820191505090505b5092508067ffffffffffffffff8111156111c9576111c8612f85565b5b6040519080825280602002602001820160405280156111f75781602001602082028036833780820191505090505b50915060008060045490505b6001811015801561121357508282105b156115c0576001600082815260200190815260200160002060060160009054906101000a900460ff16156115ad5760016000828152602001908152602001600020600001548a838151811061126b5761126a6135eb565b5b6020026020010181815250506001600082815260200190815260200160002060010160009054906101000a900473ffffffffffffffffffffffffffffffffffffffff168983815181106112c1576112c06135eb565b5b602002602001019073ffffffffffffffffffffffffffffffffffffffff16908173ffffffffffffffffffffffffffffffffffffffff168152505060016000828152602001908152602001600020600201805461131c90613572565b80601f016020809104026020016040519081016040528092919081815260200182805461134890613572565b80156113955780601f1061136a57610100808354040283529160200191611395565b820191906000526020600020905b81548152906001019060200180831161137857829003601f168201915b50505050508883815181106113ad576113ac6135eb565b5b60200260200101819052506001600082815260200190815260200160002060040180546113d990613572565b80601f016020809104026020016040519081016040528092919081815260200182805461140590613572565b80156114525780601f1061142757610100808354040283529160200191611452565b820191906000526020600020905b81548152906001019060200180831161143557829003601f168201915b505050505087838151811061146a576114696135eb565b5b602002602001018190525060016000828152602001908152602001600020600501805461149690613572565b80601f01602080910402602001604051908101604052809291908181526020018280546114c290613572565b801561150f5780601f106114e45761010080835404028352916020019161150f565b820191906000526020600020905b8154815290600101906020018083116114f257829003601f168201915b5050505050868381518110611527576115266135eb565b5b6020026020010181905250600160008281526020019081526020016000206003015485838151811061155c5761155b6135eb565b5b6020026020010181815250506001600082815260200190815260200160002060070154848381518110611592576115916135eb565b5b60200260200101818152505081806115a9906135a3565b9250505b80806115b89061361a565b915050611203565b5050505b90919293949596565b60008060608060606000806001600089815260200190815260200160002060060160009054906101000a900460ff1661163b576040517f08c379a000000000000000000000000000000000000000000000000000000000815260040161163290613454565b60405180910390fd5b6000600160008a8152602001908152602001600020905080600001548160010160009054906101000a900473ffffffffffffffffffffffffffffffffffffffff168260020183600401846005018560030154866007015484805461169e90613572565b80601f01602080910402602001604051908101604052809291908181526020018280546116ca90613572565b80156117175780601f106116ec57610100808354040283529160200191611717565b820191906000526020600020905b8154815290600101906020018083116116fa57829003601f168201915b5050505050945083805461172a90613572565b80601f016020809104026020016040519081016040528092919081815260200182805461175690613572565b80156117a35780601f10611778576101008083540402835291602001916117a3565b820191906000526020600020905b81548152906001019060200180831161178657829003601f168201915b505050505093508280546117b690613572565b80601f01602080910402602001604051908101604052809291908181526020018280546117e290613572565b801561182f5780601f106118045761010080835404028352916020019161182f565b820191906000526020600020905b81548152906001019060200180831161181257829003601f168201915b50505050509250975097509750975097509750975050919395979092949650565b6000606060008060008060008060008973ffffffffffffffffffffffffffffffffffffffff1673ffffffffffffffffffffffffffffffffffffffff1681526020019081526020016000206040518060c00160405290816000820160009054906101000a900473ffffffffffffffffffffffffffffffffffffffff1673ffffffffffffffffffffffffffffffffffffffff1673ffffffffffffffffffffffffffffffffffffffff16815260200160018201805461190b90613572565b80601f016020809104026020016040519081016040528092919081815260200182805461193790613572565b80156119845780601f1061195957610100808354040283529160200191611984565b820191906000526020600020905b81548152906001019060200180831161196757829003601f168201915b505050505081526020016002820160009054906101000a900460ff16151515158152602001600382018054806020026020016040519081016040528092919081815260200182805480156119f757602002820191906000526020600020905b8154815260200190600101908083116119e3575b5050505050815260200160048201548152602001600582015481525050905080600001518160200151826040015183606001515184608001518560a001519650965096509650965096505091939550919395565b600360003373ffffffffffffffffffffffffffffffffffffffff1673ffffffffffffffffffffffffffffffffffffffff16815260200190815260200160002060009054906101000a900460ff1615611ad8576040517f08c379a0000000000000000000000000000000000000000000000000000000008152600401611acf9061368f565b60405180910390fd5b6000815111611b1c576040517f08c379a0000000000000000000000000000000000000000000000000000000008152600401611b13906136fb565b60405180910390fd5b6040518060c001604052803373ffffffffffffffffffffffffffffffffffffffff168152602001828152602001600115158152602001600067ffffffffffffffff811115611b6d57611b6c612f85565b5b604051908082528060200260200182016040528015611b9b5781602001602082028036833780820191505090505b5081526020016000815260200160008152506000803373ffffffffffffffffffffffffffffffffffffffff1673ffffffffffffffffffffffffffffffffffffffff16815260200190815260200160002060008201518160000160006101000a81548173ffffffffffffffffffffffffffffffffffffffff021916908373ffffffffffffffffffffffffffffffffffffffff1602179055506020820151816001019081611c4791906138c7565b5060408201518160020160006101000a81548160ff0219169083151502179055506060820151816003019080519060200190611c8492919061285b565b506080820151816004015560a082015181600501559050506001600360003373ffffffffffffffffffffffffffffffffffffffff1673ffffffffffffffffffffffffffffffffffffffff16815260200190815260200160002060006101000a81548160ff02191690831515021790555060056000815480929190611d07906135a3565b91905055503373ffffffffffffffffffffffffffffffffffffffff167f48cac28ad4dc618e15f4c2dd5e97751182f166de97b25618318b2112aa951a2f82604051611d529190613999565b60405180910390a250565b6000806001600084815260200190815260200160002060060160009054906101000a900460ff16611dc3576040517f08c379a0000000000000000000000000000000000000000000000000000000008152600401611dba90613454565b60405180910390fd5b600060016000858152602001908152602001600020905080600701546002600086815260200190815260200160002060003373ffffffffffffffffffffffffffffffffffffffff1673ffffffffffffffffffffffffffffffffffffffff168152602001908152602001600020549250925050915091565b60045481565b60606000808373ffffffffffffffffffffffffffffffffffffffff1673ffffffffffffffffffffffffffffffffffffffff168152602001908152602001600020600301805480602002602001604051908101604052809291908181526020018280548015611ecd57602002820191906000526020600020905b815481526020019060010190808311611eb9575b50505050509050919050565b60006020528060005260406000206000915090508060000160009054906101000a900473ffffffffffffffffffffffffffffffffffffffff1690806001018054611f2290613572565b80601f0160208091040260200160405190810160405280929190818152602001828054611f4e90613572565b8015611f9b5780601f10611f7057610100808354040283529160200191611f9b565b820191906000526020600020905b815481529060010190602001808311611f7e57829003601f168201915b5050505050908060020160009054906101000a900460ff16908060040154908060050154905085565b6002602052816000526040600020602052806000526040600020600091509150505481565b6000806000806000808673ffffffffffffffffffffffffffffffffffffffff1673ffffffffffffffffffffffffffffffffffffffff1681526020019081526020016000209050806004015481600501548260050154836004015461204d91906139bb565b935093509350509193909250565b600360003373ffffffffffffffffffffffffffffffffffffffff1673ffffffffffffffffffffffffffffffffffffffff16815260200190815260200160002060009054906101000a900460ff166120e7576040517f08c379a00000000000000000000000000000000000000000000000000000000081526004016120de90613356565b60405180910390fd5b60008060003373ffffffffffffffffffffffffffffffffffffffff1673ffffffffffffffffffffffffffffffffffffffff168152602001908152602001600020905060008160050154826004015461213f91906139bb565b905060008111612184576040517f08c379a000000000000000000000000000000000000000000000000000000000815260040161217b90613a3b565b60405180910390fd5b8160040154826005018190555060003373ffffffffffffffffffffffffffffffffffffffff16826040516121b790613a8c565b60006040518083038185875af1925050503d80600081146121f4576040519150601f19603f3d011682016040523d82523d6000602084013e6121f9565b606091505b505090508061223d576040517f08c379a000000000000000000000000000000000000000000000000000000000815260040161223490613aed565b60405180910390fd5b3373ffffffffffffffffffffffffffffffffffffffff167f95674e7fbc16e976795472f9fc5fc2916b3bc6b7adc1958b59ba52379e937c7f8360405161228391906130f9565b60405180910390a2505050565b60055481565b600360003373ffffffffffffffffffffffffffffffffffffffff1673ffffffffffffffffffffffffffffffffffffffff16815260200190815260200160002060009054906101000a900460ff16612322576040517f08c379a000000000000000000000000000000000000000000000000000000000815260040161231990613356565b60405180910390fd5b600083511180612333575060008251115b612372576040517f08c379a000000000000000000000000000000000000000000000000000000000815260040161236990613b59565b60405180910390fd5b6103e8835111156123b8576040517f08c379a00000000000000000000000000000000000000000000000000000000081526004016123af90613bc5565b60405180910390fd5b600460008154809291906123cb906135a3565b919050555060405180610100016040528060045481526020013373ffffffffffffffffffffffffffffffffffffffff16815260200184815260200142815260200183815260200182815260200160011515815260200160008152506001600060045481526020019081526020016000206000820151816000015560208201518160010160006101000a81548173ffffffffffffffffffffffffffffffffffffffff021916908373ffffffffffffffffffffffffffffffffffffffff16021790555060408201518160020190816124a191906138c7565b506060820151816003015560808201518160040190816124c191906138c7565b5060a08201518160050190816124d791906138c7565b5060c08201518160060160006101000a81548160ff02191690831515021790555060e082015181600701559050506000803373ffffffffffffffffffffffffffffffffffffffff1673ffffffffffffffffffffffffffffffffffffffff16815260200190815260200160002060030160045490806001815401808255809150506001900390600052602060002001600090919091909150553373ffffffffffffffffffffffffffffffffffffffff166004547f8e40a51278abe2f4b410c0a96ff0bdd024b22666ca334062bf72afd596984bd6856040516125b89190613999565b60405180910390a3505050565b600360003373ffffffffffffffffffffffffffffffffffffffff1673ffffffffffffffffffffffffffffffffffffffff16815260200190815260200160002060009054906101000a900460ff16612651576040517f08c379a000000000000000000000000000000000000000000000000000000000815260040161264890613356565b60405180910390fd5b816001600082815260200190815260200160002060060160009054906101000a900460ff166126b5576040517f08c379a00000000000000000000000000000000000000000000000000000000081526004016126ac90613454565b60405180910390fd5b3373ffffffffffffffffffffffffffffffffffffffff166001600083815260200190815260200160002060010160009054906101000a900473ffffffffffffffffffffffffffffffffffffffff1673ffffffffffffffffffffffffffffffffffffffff1614612759576040517f08c379a000000000000000000000000000000000000000000000000000000000815260040161275090613c31565b60405180910390fd5b600082511161279d576040517f08c379a000000000000000000000000000000000000000000000000000000000815260040161279490613c9d565b60405180910390fd5b6103e8825111156127e3576040517f08c379a00000000000000000000000000000000000000000000000000000000081526004016127da90613bc5565b60405180910390fd5b8160016000858152602001908152602001600020600201908161280691906138c7565b503373ffffffffffffffffffffffffffffffffffffffff16837fc7931b4f20484d9753f780534a76cc5a97feb26c3ca558bb2cb5fa326d8b133b8460405161284e9190613999565b60405180910390a3505050565b828054828255906000526020600020908101928215612897579160200282015b8281111561289657825182559160200191906001019061287b565b5b5090506128a491906128a8565b5090565b5b808211156128c15760008160009055506001016128a9565b5090565b6000604051905090565b600080fd5b600080fd5b6000819050919050565b6128ec816128d9565b81146128f757600080fd5b50565b600081359050612909816128e3565b92915050565b600060208284031215612925576129246128cf565b5b6000612933848285016128fa565b91505092915050565b612945816128d9565b82525050565b600073ffffffffffffffffffffffffffffffffffffffff82169050919050565b60006129768261294b565b9050919050565b6129868161296b565b82525050565b600081519050919050565b600082825260208201905092915050565b60005b838110156129c65780820151818401526020810190506129ab565b60008484015250505050565b6000601f19601f8301169050919050565b60006129ee8261298c565b6129f88185612997565b9350612a088185602086016129a8565b612a11816129d2565b840191505092915050565b60008115159050919050565b612a3181612a1c565b82525050565b600061010082019050612a4d600083018b61293c565b612a5a602083018a61297d565b8181036040830152612a6c81896129e3565b9050612a7b606083018861293c565b8181036080830152612a8d81876129e3565b905081810360a0830152612aa181866129e3565b9050612ab060c0830185612a28565b612abd60e083018461293c565b9998505050505050505050565b612ad38161296b565b8114612ade57600080fd5b50565b600081359050612af081612aca565b92915050565b600060208284031215612b0c57612b0b6128cf565b5b6000612b1a84828501612ae1565b91505092915050565b6000602082019050612b386000830184612a28565b92915050565b6000604082019050612b53600083018561293c565b612b60602083018461293c565b9392505050565b600081519050919050565b600082825260208201905092915050565b6000819050602082019050919050565b612b9c816128d9565b82525050565b6000612bae8383612b93565b60208301905092915050565b6000602082019050919050565b6000612bd282612b67565b612bdc8185612b72565b9350612be783612b83565b8060005b83811015612c18578151612bff8882612ba2565b9750612c0a83612bba565b925050600181019050612beb565b5085935050505092915050565b600081519050919050565b600082825260208201905092915050565b6000819050602082019050919050565b612c5a8161296b565b82525050565b6000612c6c8383612c51565b60208301905092915050565b6000602082019050919050565b6000612c9082612c25565b612c9a8185612c30565b9350612ca583612c41565b8060005b83811015612cd6578151612cbd8882612c60565b9750612cc883612c78565b925050600181019050612ca9565b5085935050505092915050565b600081519050919050565b600082825260208201905092915050565b6000819050602082019050919050565b600082825260208201905092915050565b6000612d2b8261298c565b612d358185612d0f565b9350612d458185602086016129a8565b612d4e816129d2565b840191505092915050565b6000612d658383612d20565b905092915050565b6000602082019050919050565b6000612d8582612ce3565b612d8f8185612cee565b935083602082028501612da185612cff565b8060005b85811015612ddd5784840389528151612dbe8582612d59565b9450612dc983612d6d565b925060208a01995050600181019050612da5565b50829750879550505050505092915050565b600060e0820190508181036000830152612e09818a612bc7565b90508181036020830152612e1d8189612c85565b90508181036040830152612e318188612d7a565b90508181036060830152612e458187612d7a565b90508181036080830152612e598186612d7a565b905081810360a0830152612e6d8185612bc7565b905081810360c0830152612e818184612bc7565b905098975050505050505050565b600060e082019050612ea4600083018a61293c565b612eb1602083018961297d565b8181036040830152612ec381886129e3565b90508181036060830152612ed781876129e3565b90508181036080830152612eeb81866129e3565b9050612efa60a083018561293c565b612f0760c083018461293c565b98975050505050505050565b600060c082019050612f28600083018961297d565b8181036020830152612f3a81886129e3565b9050612f496040830187612a28565b612f56606083018661293c565b612f63608083018561293c565b612f7060a083018461293c565b979650505050505050565b600080fd5b600080fd5b7f4e487b7100000000000000000000000000000000000000000000000000000000600052604160045260246000fd5b612fbd826129d2565b810181811067ffffffffffffffff82111715612fdc57612fdb612f85565b5b80604052505050565b6000612fef6128c5565b9050612ffb8282612fb4565b919050565b600067ffffffffffffffff82111561301b5761301a612f85565b5b613024826129d2565b9050602081019050919050565b82818337600083830152505050565b600061305361304e84613000565b612fe5565b90508281526020810184848401111561306f5761306e612f80565b5b61307a848285613031565b509392505050565b600082601f83011261309757613096612f7b565b5b81356130a7848260208601613040565b91505092915050565b6000602082840312156130c6576130c56128cf565b5b600082013567ffffffffffffffff8111156130e4576130e36128d4565b5b6130f084828501613082565b91505092915050565b600060208201905061310e600083018461293c565b92915050565b6000602082019050818103600083015261312e8184612bc7565b905092915050565b600060a08201905061314b600083018861297d565b818103602083015261315d81876129e3565b905061316c6040830186612a28565b613179606083018561293c565b613186608083018461293c565b9695505050505050565b600080604083850312156131a7576131a66128cf565b5b60006131b5858286016128fa565b92505060206131c685828601612ae1565b9150509250929050565b60006060820190506131e5600083018661293c565b6131f2602083018561293c565b6131ff604083018461293c565b949350505050565b6000806000606084860312156132205761321f6128cf565b5b600084013567ffffffffffffffff81111561323e5761323d6128d4565b5b61324a86828701613082565b935050602084013567ffffffffffffffff81111561326b5761326a6128d4565b5b61327786828701613082565b925050604084013567ffffffffffffffff811115613298576132976128d4565b5b6132a486828701613082565b9150509250925092565b600080604083850312156132c5576132c46128cf565b5b60006132d3858286016128fa565b925050602083013567ffffffffffffffff8111156132f4576132f36128d4565b5b61330085828601613082565b9150509250929050565b7f55736572206e6f74207265676973746572656400000000000000000000000000600082015250565b6000613340601383612997565b915061334b8261330a565b602082019050919050565b6000602082019050818103600083015261336f81613333565b9050919050565b7f54697070696e6720616d6f756e74206d7573742062652067726561746572207460008201527f68616e2030000000000000000000000000000000000000000000000000000000602082015250565b60006133d2602583612997565b91506133dd82613376565b604082019050919050565b60006020820190508181036000830152613401816133c5565b9050919050565b7f506f737420646f6573206e6f7420657869737400000000000000000000000000600082015250565b600061343e601383612997565b915061344982613408565b602082019050919050565b6000602082019050818103600083015261346d81613431565b9050919050565b7f43616e6e6f742054697070696e6720796f7572206f776e20706f737400000000600082015250565b60006134aa601c83612997565b91506134b582613474565b602082019050919050565b600060208201905081810360008301526134d98161349d565b9050919050565b7f4e487b7100000000000000000000000000000000000000000000000000000000600052601160045260246000fd5b600061351a826128d9565b9150613525836128d9565b925082820190508082111561353d5761353c6134e0565b5b92915050565b7f4e487b7100000000000000000000000000000000000000000000000000000000600052602260045260246000fd5b6000600282049050600182168061358a57607f821691505b60208210810361359d5761359c613543565b5b50919050565b60006135ae826128d9565b91507fffffffffffffffffffffffffffffffffffffffffffffffffffffffffffffffff82036135e0576135df6134e0565b5b600182019050919050565b7f4e487b7100000000000000000000000000000000000000000000000000000000600052603260045260246000fd5b6000613625826128d9565b915060008203613638576136376134e0565b5b600182039050919050565b7f5573657220616c72656164792072656769737465726564000000000000000000600082015250565b6000613679601783612997565b915061368482613643565b602082019050919050565b600060208201905081810360008301526136a88161366c565b9050919050565b7f557365726e616d652063616e6e6f7420626520656d7074790000000000000000600082015250565b60006136e5601883612997565b91506136f0826136af565b602082019050919050565b60006020820190508181036000830152613714816136d8565b9050919050565b60008190508160005260206000209050919050565b60006020601f8301049050919050565b600082821b905092915050565b60006008830261377d7fffffffffffffffffffffffffffffffffffffffffffffffffffffffffffffffff82613740565b6137878683613740565b95508019841693508086168417925050509392505050565b6000819050919050565b60006137c46137bf6137ba846128d9565b61379f565b6128d9565b9050919050565b6000819050919050565b6137de836137a9565b6137f26137ea826137cb565b84845461374d565b825550505050565b600090565b6138076137fa565b6138128184846137d5565b505050565b5b818110156138365761382b6000826137ff565b600181019050613818565b5050565b601f82111561387b5761384c8161371b565b61385584613730565b81016020851015613864578190505b61387861387085613730565b830182613817565b50505b505050565b600082821c905092915050565b600061389e60001984600802613880565b1980831691505092915050565b60006138b7838361388d565b9150826002028217905092915050565b6138d08261298c565b67ffffffffffffffff8111156138e9576138e8612f85565b5b6138f38254613572565b6138fe82828561383a565b600060209050601f831160018114613931576000841561391f578287015190505b61392985826138ab565b865550613991565b601f19841661393f8661371b565b60005b8281101561396757848901518255600182019150602085019450602081019050613942565b868310156139845784890151613980601f89168261388d565b8355505b6001600288020188555050505b505050505050565b600060208201905081810360008301526139b381846129e3565b905092915050565b60006139c6826128d9565b91506139d1836128d9565b92508282039050818111156139e9576139e86134e0565b5b92915050565b7f4e6f2054697070696e6720746f20776974686472617700000000000000000000600082015250565b6000613a25601683612997565b9150613a30826139ef565b602082019050919050565b60006020820190508181036000830152613a5481613a18565b9050919050565b600081905092915050565b50565b6000613a76600083613a5b565b9150613a8182613a66565b600082019050919050565b6000613a9782613a69565b9150819050919050565b7f5472616e73666572206661696c65640000000000000000000000000000000000600082015250565b6000613ad7600f83612997565b9150613ae282613aa1565b602082019050919050565b60006020820190508181036000830152613b0681613aca565b9050919050565b7f506f7374206d757374206861766520636f6e74656e74206f72206d6564696100600082015250565b6000613b43601f83612997565b9150613b4e82613b0d565b602082019050919050565b60006020820190508181036000830152613b7281613b36565b9050919050565b7f506f737420636f6e74656e7420746f6f206c6f6e670000000000000000000000600082015250565b6000613baf601583612997565b9150613bba82613b79565b602082019050919050565b60006020820190508181036000830152613bde81613ba2565b9050919050565b7f4e6f742074686520617574686f72206f66207468697320706f73740000000000600082015250565b6000613c1b601b83612997565b9150613c2682613be5565b602082019050919050565b60006020820190508181036000830152613c4a81613c0e565b9050919050565b7f506f737420636f6e74656e742063616e6e6f7420626520656d70747900000000600082015250565b6000613c87601c83612997565b9150613c9282613c51565b602082019050919050565b60006020820190508181036000830152613cb681613c7a565b905091905056fea2646970667358221220fdabe7cf0e8827dc0a42e261569ce9693ad0ee007ce67e4c4c40b571677606c164736f6c634300081c0033",
  "linkReferences": {},
  "deployedLinkReferences": {}
}