{
  "_format": "hh-sol-artifact-1",
  "contractName": "SocialDApp",
  "sourceName": "contracts/socialMedia.sol",
  "abi": [
    {
      "anonymous": false,
      "inputs": [
        {
          "indexed": true,
          "internalType": "uint256",
          "name": "postId",
          "type": "uint256"
        },
        {
          "indexed": true,
          "internalType": "address",
          "name": "author",
          "type": "address"
        },
        {
          "indexed": false,
          "internalType": "string",
          "name": "content",
          "type": "string"
        }
      ],
      "name": "PostCreated",
      "type": "event"
    },
    {
      "anonymous": false,
      "inputs": [
        {
          "indexed": true,
          "internalType": "uint256",
          "name": "postId",
          "type": "uint256"
        },
        {
          "indexed": true,
          "internalType": "address",
          "name": "author",
          "type": "address"
        },
        {
          "indexed": false,
          "internalType": "string",
          "name": "newContent",
          "type": "string"
        }
      ],
      "name": "PostEdited",
      "type": "event"
    },
    {
      "anonymous": false,
      "inputs": [
        {
          "indexed": true,
          "internalType": "uint256",
          "name": "postId",
          "type": "uint256"
        },
        {
          "indexed": true,
          "internalType": "address",
          "name": "giver",
          "type": "address"
        },
        {
          "indexed": true,
          "internalType": "address",
          "name": "receiver",
          "type": "address"
        },
        {
          "indexed": false,
          "internalType": "uint256",
          "name": "amount",
          "type": "uint256"
        }
      ],
      "name": "TippingGiven",
      "type": "event"
    },
    {
      "anonymous": false,
      "inputs": [
        {
          "indexed": true,
          "internalType": "address",
          "name": "user",
          "type": "address"
        },
        {
          "indexed": false,
          "internalType": "uint256",
          "name": "amount",
          "type": "uint256"
        }
      ],
      "name": "TippingWithdrawn",
      "type": "event"
    },
    {
      "anonymous": false,
      "inputs": [
        {
          "indexed": true,
          "internalType": "address",
          "name": "user",
          "type": "address"
        },
        {
          "indexed": false,
          "internalType": "string",
          "name": "username",
          "type": "string"
        }
      ],
      "name": "UserRegistered",
      "type": "event"
    },
    {
      "inputs": [
        {
          "internalType": "string",
          "name": "_content",
          "type": "string"
        }
      ],
      "name": "createPost",
      "outputs": [],
      "stateMutability": "nonpayable",
      "type": "function"
    },
    {
      "inputs": [
        {
          "internalType": "uint256",
          "name": "_postId",
          "type": "uint256"
        },
        {
          "internalType": "string",
          "name": "_newContent",
          "type": "string"
        }
      ],
      "name": "editPost",
      "outputs": [],
      "stateMutability": "nonpayable",
      "type": "function"
    },
    {
      "inputs": [],
      "name": "getAllPosts",
      "outputs": [
        {
          "internalType": "uint256[]",
          "name": "ids",
          "type": "uint256[]"
        },
        {
          "internalType": "address[]",
          "name": "authors",
          "type": "address[]"
        },
        {
          "internalType": "string[]",
          "name": "contents",
          "type": "string[]"
        },
        {
          "internalType": "uint256[]",
          "name": "timestamps",
          "type": "uint256[]"
        },
        {
          "internalType": "uint256[]",
          "name": "totalTippingArray",
          "type": "uint256[]"
        }
      ],
      "stateMutability": "view",
      "type": "function"
    },
    {
      "inputs": [],
      "name": "getPlatformStats",
      "outputs": [
        {
          "internalType": "uint256",
          "name": "usersCount",
          "type": "uint256"
        },
        {
          "internalType": "uint256",
          "name": "postsCount",
          "type": "uint256"
        }
      ],
      "stateMutability": "view",
      "type": "function"
    },
    {
      "inputs": [
        {
          "internalType": "uint256",
          "name": "_postId",
          "type": "uint256"
        }
      ],
      "name": "getPost",
      "outputs": [
        {
          "internalType": "uint256",
          "name": "id",
          "type": "uint256"
        },
        {
          "internalType": "address",
          "name": "author",
          "type": "address"
        },
        {
          "internalType": "string",
          "name": "content",
          "type": "string"
        },
        {
          "internalType": "uint256",
          "name": "timestamp",
          "type": "uint256"
        },
        {
          "internalType": "uint256",
          "name": "totalTipping",
          "type": "uint256"
        }
      ],
      "stateMutability": "view",
      "type": "function"
    },
    {
      "inputs": [
        {
          "internalType": "uint256",
          "name": "_postId",
          "type": "uint256"
        }
      ],
      "name": "getPostTipping",
      "outputs": [
        {
          "internalType": "uint256",
          "name": "totalTipping",
          "type": "uint256"
        },
        {
          "internalType": "uint256",
          "name": "userTipping",
          "type": "uint256"
        }
      ],
      "stateMutability": "view",
      "type": "function"
    },
    {
      "inputs": [
        {
          "internalType": "address",
          "name": "_user",
          "type": "address"
        }
      ],
      "name": "getUserInfo",
      "outputs": [
        {
          "internalType": "address",
          "name": "userAddress",
          "type": "address"
        },
        {
          "internalType": "string",
          "name": "username",
          "type": "string"
        },
        {
          "internalType": "bool",
          "name": "isRegistered",
          "type": "bool"
        },
        {
          "internalType": "uint256",
          "name": "postCount",
          "type": "uint256"
        },
        {
          "internalType": "uint256",
          "name": "totalTipping",
          "type": "uint256"
        },
        {
          "internalType": "uint256",
          "name": "withdrawnTipping",
          "type": "uint256"
        }
      ],
      "stateMutability": "view",
      "type": "function"
    },
    {
      "inputs": [
        {
          "internalType": "address",
          "name": "_user",
          "type": "address"
        }
      ],
      "name": "getUserPosts",
      "outputs": [
        {
          "internalType": "uint256[]",
          "name": "",
          "type": "uint256[]"
        }
      ],
      "stateMutability": "view",
      "type": "function"
    },
    {
      "inputs": [
        {
          "internalType": "address",
          "name": "_user",
          "type": "address"
        }
      ],
      "name": "getUserTipping",
      "outputs": [
        {
          "internalType": "uint256",
          "name": "totalTipping",
          "type": "uint256"
        },
        {
          "internalType": "uint256",
          "name": "withdrawnTipping",
          "type": "uint256"
        },
        {
          "internalType": "uint256",
          "name": "availableTipping",
          "type": "uint256"
        }
      ],
      "stateMutability": "view",
      "type": "function"
    },
    {
      "inputs": [
        {
          "internalType": "uint256",
          "name": "_postId",
          "type": "uint256"
        }
      ],
      "name": "giveTipping",
      "outputs": [],
      "stateMutability": "payable",
      "type": "function"
    },
    {
      "inputs": [
        {
          "internalType": "address",
          "name": "_user",
          "type": "address"
        }
      ],
      "name": "isUserRegistered",
      "outputs": [
        {
          "internalType": "bool",
          "name": "",
          "type": "bool"
        }
      ],
      "stateMutability": "view",
      "type": "function"
    },
    {
      "inputs": [
        {
          "internalType": "uint256",
          "name": "",
          "type": "uint256"
        },
        {
          "internalType": "address",
          "name": "",
          "type": "address"
        }
      ],
      "name": "postTipping",
      "outputs": [
        {
          "internalType": "uint256",
          "name": "",
          "type": "uint256"
        }
      ],
      "stateMutability": "view",
      "type": "function"
    },
    {
      "inputs": [
        {
          "internalType": "uint256",
          "name": "",
          "type": "uint256"
        }
      ],
      "name": "posts",
      "outputs": [
        {
          "internalType": "uint256",
          "name": "id",
          "type": "uint256"
        },
        {
          "internalType": "address",
          "name": "author",
          "type": "address"
        },
        {
          "internalType": "string",
          "name": "content",
          "type": "string"
        },
        {
          "internalType": "uint256",
          "name": "timestamp",
          "type": "uint256"
        },
        {
          "internalType": "bool",
          "name": "exists",
          "type": "bool"
        },
        {
          "internalType": "uint256",
          "name": "totalTipping",
          "type": "uint256"
        }
      ],
      "stateMutability": "view",
      "type": "function"
    },
    {
      "inputs": [
        {
          "internalType": "string",
          "name": "_username",
          "type": "string"
        }
      ],
      "name": "registerUser",
      "outputs": [],
      "stateMutability": "nonpayable",
      "type": "function"
    },
    {
      "inputs": [
        {
          "internalType": "address",
          "name": "",
          "type": "address"
        }
      ],
      "name": "registeredUsers",
      "outputs": [
        {
          "internalType": "bool",
          "name": "",
          "type": "bool"
        }
      ],
      "stateMutability": "view",
      "type": "function"
    },
    {
      "inputs": [],
      "name": "totalPosts",
      "outputs": [
        {
          "internalType": "uint256",
          "name": "",
          "type": "uint256"
        }
      ],
      "stateMutability": "view",
      "type": "function"
    },
    {
      "inputs": [],
      "name": "totalUsers",
      "outputs": [
        {
          "internalType": "uint256",
          "name": "",
          "type": "uint256"
        }
      ],
      "stateMutability": "view",
      "type": "function"
    },
    {
      "inputs": [
        {
          "internalType": "address",
          "name": "",
          "type": "address"
        }
      ],
      "name": "users",
      "outputs": [
        {
          "internalType": "address",
          "name": "userAddress",
          "type": "address"
        },
        {
          "internalType": "string",
          "name": "username",
          "type": "string"
        },
        {
          "internalType": "bool",
          "name": "isRegistered",
          "type": "bool"
        },
        {
          "internalType": "uint256",
          "name": "totalTipping",
          "type": "uint256"
        },
        {
          "internalType": "uint256",
          "name": "withdrawnTipping",
          "type": "uint256"
        }
      ],
      "stateMutability": "view",
      "type": "function"
    },
    {
      "inputs": [],
      "name": "withdrawTipping",
      "outputs": [],
      "stateMutability": "nonpayable",
      "type": "function"
    },
    {
      "stateMutability": "payable",
      "type": "receive"
    }
  ],
  "bytecode": "0x6080604052348015600f57600080fd5b5061356c8061001f6000396000f3fe6080604052600436106101185760003560e01c806372cf8e94116100a0578063b75969a711610064578063b75969a714610427578063bd6b15de14610466578063bff1f9e11461047d578063c7303c61146104a8578063fa99654a146104d15761011f565b806372cf8e94146103035780638e53fb41146103415780639a2194a91461036c578063a87430ba146103a9578063b49b98b0146103ea5761011f565b8063163f7522116100e7578063163f7522146101eb578063305611001461022857806340731c24146102575780636386c1c714610298578063704f1b94146102da5761011f565b806307c4ac3c146101245780630b1e7f83146101405780630e50cee514610182578063136d8883146101bf5761011f565b3661011f57005b600080fd5b61013e6004803603810190610139919061231a565b6104fa565b005b34801561014c57600080fd5b506101676004803603810190610162919061231a565b610879565b60405161017996959493929190612442565b60405180910390f35b34801561018e57600080fd5b506101a960048036038101906101a491906124d6565b61096a565b6040516101b69190612503565b60405180910390f35b3480156101cb57600080fd5b506101d461098a565b6040516101e292919061251e565b60405180910390f35b3480156101f757600080fd5b50610212600480360381019061020d91906124d6565b61099b565b60405161021f9190612503565b60405180910390f35b34801561023457600080fd5b5061023d6109f1565b60405161024e9594939291906127cf565b60405180910390f35b34801561026357600080fd5b5061027e6004803603810190610279919061231a565b611148565b60405161028f959493929190612845565b60405180910390f35b3480156102a457600080fd5b506102bf60048036038101906102ba91906124d6565b6112a2565b6040516102d19695949392919061289f565b60405180910390f35b3480156102e657600080fd5b5061030160048036038101906102fc9190612a3c565b61149d565b005b34801561030f57600080fd5b5061032a6004803603810190610325919061231a565b6117af565b60405161033892919061251e565b60405180910390f35b34801561034d57600080fd5b5061035661188c565b6040516103639190612a85565b60405180910390f35b34801561037857600080fd5b50610393600480360381019061038e91906124d6565b611892565b6040516103a09190612aa0565b60405180910390f35b3480156103b557600080fd5b506103d060048036038101906103cb91906124d6565b61192b565b6040516103e1959493929190612ac2565b60405180910390f35b3480156103f657600080fd5b50610411600480360381019061040c9190612b1c565b611a16565b60405161041e9190612a85565b60405180910390f35b34801561043357600080fd5b5061044e600480360381019061044991906124d6565b611a3b565b60405161045d93929190612b5c565b60405180910390f35b34801561047257600080fd5b5061047b611aad565b005b34801561048957600080fd5b50610492611ce2565b60405161049f9190612a85565b60405180910390f35b3480156104b457600080fd5b506104cf60048036038101906104ca9190612a3c565b611ce8565b005b3480156104dd57600080fd5b506104f860048036038101906104f39190612b93565b611fd0565b005b600360003373ffffffffffffffffffffffffffffffffffffffff1673ffffffffffffffffffffffffffffffffffffffff16815260200190815260200160002060009054906101000a900460ff16610586576040517f08c379a000000000000000000000000000000000000000000000000000000000815260040161057d90612c3b565b60405180910390fd5b600034116105c9576040517f08c379a00000000000000000000000000000000000000000000000000000000081526004016105c090612ccd565b60405180910390fd5b6001600082815260200190815260200160002060040160009054906101000a900460ff1661062c576040517f08c379a000000000000000000000000000000000000000000000000000000000815260040161062390612d39565b60405180910390fd5b3373ffffffffffffffffffffffffffffffffffffffff166001600083815260200190815260200160002060010160009054906101000a900473ffffffffffffffffffffffffffffffffffffffff1673ffffffffffffffffffffffffffffffffffffffff16036106d0576040517f08c379a00000000000000000000000000000000000000000000000000000000081526004016106c790612da5565b60405180910390fd5b6000600160008381526020019081526020016000209050348160050160008282546106fb9190612df4565b92505081905550346002600084815260200190815260200160002060003373ffffffffffffffffffffffffffffffffffffffff1673ffffffffffffffffffffffffffffffffffffffff16815260200190815260200160002060008282546107629190612df4565b9250508190555060008060008360010160009054906101000a900473ffffffffffffffffffffffffffffffffffffffff1673ffffffffffffffffffffffffffffffffffffffff1673ffffffffffffffffffffffffffffffffffffffff1681526020019081526020016000209050348160040160008282546107e39190612df4565b925050819055508160010160009054906101000a900473ffffffffffffffffffffffffffffffffffffffff1673ffffffffffffffffffffffffffffffffffffffff163373ffffffffffffffffffffffffffffffffffffffff16847f8f307cc9d095a6a4784dafe7636e0bc06602d3bb41141836a765a270ed0d44f53460405161086c9190612a85565b60405180910390a4505050565b60016020528060005260406000206000915090508060000154908060010160009054906101000a900473ffffffffffffffffffffffffffffffffffffffff16908060020180546108c890612e57565b80601f01602080910402602001604051908101604052809291908181526020018280546108f490612e57565b80156109415780601f1061091657610100808354040283529160200191610941565b820191906000526020600020905b81548152906001019060200180831161092457829003601f168201915b5050505050908060030154908060040160009054906101000a900460ff16908060050154905086565b60036020528060005260406000206000915054906101000a900460ff1681565b600080600554600454915091509091565b6000600360008373ffffffffffffffffffffffffffffffffffffffff1673ffffffffffffffffffffffffffffffffffffffff16815260200190815260200160002060009054906101000a900460ff169050919050565b6060806060806060600060045403610b8957600067ffffffffffffffff811115610a1e57610a1d612911565b5b604051908082528060200260200182016040528015610a4c5781602001602082028036833780820191505090505b50600067ffffffffffffffff811115610a6857610a67612911565b5b604051908082528060200260200182016040528015610a965781602001602082028036833780820191505090505b50600067ffffffffffffffff811115610ab257610ab1612911565b5b604051908082528060200260200182016040528015610ae557816020015b6060815260200190600190039081610ad05790505b50600067ffffffffffffffff811115610b0157610b00612911565b5b604051908082528060200260200182016040528015610b2f5781602001602082028036833780820191505090505b50600067ffffffffffffffff811115610b4b57610b4a612911565b5b604051908082528060200260200182016040528015610b795781602001602082028036833780820191505090505b5094509450945094509450611141565b600080600190505b6004548111610be5576001600082815260200190815260200160002060040160009054906101000a900460ff1615610bd2578180610bce90612e88565b9250505b8080610bdd90612e88565b915050610b91565b5060008103610d7557600067ffffffffffffffff811115610c0957610c08612911565b5b604051908082528060200260200182016040528015610c375781602001602082028036833780820191505090505b50600067ffffffffffffffff811115610c5357610c52612911565b5b604051908082528060200260200182016040528015610c815781602001602082028036833780820191505090505b50600067ffffffffffffffff811115610c9d57610c9c612911565b5b604051908082528060200260200182016040528015610cd057816020015b6060815260200190600190039081610cbb5790505b50600067ffffffffffffffff811115610cec57610ceb612911565b5b604051908082528060200260200182016040528015610d1a5781602001602082028036833780820191505090505b50600067ffffffffffffffff811115610d3657610d35612911565b5b604051908082528060200260200182016040528015610d645781602001602082028036833780820191505090505b509550955095509550955050611141565b8067ffffffffffffffff811115610d8f57610d8e612911565b5b604051908082528060200260200182016040528015610dbd5781602001602082028036833780820191505090505b5095508067ffffffffffffffff811115610dda57610dd9612911565b5b604051908082528060200260200182016040528015610e085781602001602082028036833780820191505090505b5094508067ffffffffffffffff811115610e2557610e24612911565b5b604051908082528060200260200182016040528015610e5857816020015b6060815260200190600190039081610e435790505b5093508067ffffffffffffffff811115610e7557610e74612911565b5b604051908082528060200260200182016040528015610ea35781602001602082028036833780820191505090505b5092508067ffffffffffffffff811115610ec057610ebf612911565b5b604051908082528060200260200182016040528015610eee5781602001602082028036833780820191505090505b50915060008060045490505b60018110158015610f0a57508282105b1561113d576001600082815260200190815260200160002060040160009054906101000a900460ff161561112a576001600082815260200190815260200160002060000154888381518110610f6257610f61612ed0565b5b6020026020010181815250506001600082815260200190815260200160002060010160009054906101000a900473ffffffffffffffffffffffffffffffffffffffff16878381518110610fb857610fb7612ed0565b5b602002602001019073ffffffffffffffffffffffffffffffffffffffff16908173ffffffffffffffffffffffffffffffffffffffff168152505060016000828152602001908152602001600020600201805461101390612e57565b80601f016020809104026020016040519081016040528092919081815260200182805461103f90612e57565b801561108c5780601f106110615761010080835404028352916020019161108c565b820191906000526020600020905b81548152906001019060200180831161106f57829003601f168201915b50505050508683815181106110a4576110a3612ed0565b5b602002602001018190525060016000828152602001908152602001600020600301548583815181106110d9576110d8612ed0565b5b602002602001018181525050600160008281526020019081526020016000206005015484838151811061110f5761110e612ed0565b5b602002602001018181525050818061112690612e88565b9250505b808061113590612eff565b915050610efa565b5050505b9091929394565b60008060606000806001600087815260200190815260200160002060040160009054906101000a900460ff166111b3576040517f08c379a00000000000000000000000000000000000000000000000000000000081526004016111aa90612d39565b60405180910390fd5b600060016000888152602001908152602001600020905080600001548160010160009054906101000a900473ffffffffffffffffffffffffffffffffffffffff16826002018360030154846005015482805461120e90612e57565b80601f016020809104026020016040519081016040528092919081815260200182805461123a90612e57565b80156112875780601f1061125c57610100808354040283529160200191611287565b820191906000526020600020905b81548152906001019060200180831161126a57829003601f168201915b50505050509250955095509550955095505091939590929450565b6000606060008060008060008060008973ffffffffffffffffffffffffffffffffffffffff1673ffffffffffffffffffffffffffffffffffffffff1681526020019081526020016000206040518060c00160405290816000820160009054906101000a900473ffffffffffffffffffffffffffffffffffffffff1673ffffffffffffffffffffffffffffffffffffffff1673ffffffffffffffffffffffffffffffffffffffff16815260200160018201805461135d90612e57565b80601f016020809104026020016040519081016040528092919081815260200182805461138990612e57565b80156113d65780601f106113ab576101008083540402835291602001916113d6565b820191906000526020600020905b8154815290600101906020018083116113b957829003601f168201915b505050505081526020016002820160009054906101000a900460ff161515151581526020016003820180548060200260200160405190810160405280929190818152602001828054801561144957602002820191906000526020600020905b815481526020019060010190808311611435575b5050505050815260200160048201548152602001600582015481525050905080600001518160200151826040015183606001515184608001518560a001519650965096509650965096505091939550919395565b600360003373ffffffffffffffffffffffffffffffffffffffff1673ffffffffffffffffffffffffffffffffffffffff16815260200190815260200160002060009054906101000a900460ff161561152a576040517f08c379a000000000000000000000000000000000000000000000000000000000815260040161152190612f74565b60405180910390fd5b600081511161156e576040517f08c379a000000000000000000000000000000000000000000000000000000000815260040161156590612fe0565b60405180910390fd5b6040518060c001604052803373ffffffffffffffffffffffffffffffffffffffff168152602001828152602001600115158152602001600067ffffffffffffffff8111156115bf576115be612911565b5b6040519080825280602002602001820160405280156115ed5781602001602082028036833780820191505090505b5081526020016000815260200160008152506000803373ffffffffffffffffffffffffffffffffffffffff1673ffffffffffffffffffffffffffffffffffffffff16815260200190815260200160002060008201518160000160006101000a81548173ffffffffffffffffffffffffffffffffffffffff021916908373ffffffffffffffffffffffffffffffffffffffff160217905550602082015181600101908161169991906131ac565b5060408201518160020160006101000a81548160ff02191690831515021790555060608201518160030190805190602001906116d6929190612266565b506080820151816004015560a082015181600501559050506001600360003373ffffffffffffffffffffffffffffffffffffffff1673ffffffffffffffffffffffffffffffffffffffff16815260200190815260200160002060006101000a81548160ff0219169083151502179055506005600081548092919061175990612e88565b91905055503373ffffffffffffffffffffffffffffffffffffffff167f48cac28ad4dc618e15f4c2dd5e97751182f166de97b25618318b2112aa951a2f826040516117a4919061327e565b60405180910390a250565b6000806001600084815260200190815260200160002060040160009054906101000a900460ff16611815576040517f08c379a000000000000000000000000000000000000000000000000000000000815260040161180c90612d39565b60405180910390fd5b600060016000858152602001908152602001600020905080600501546002600086815260200190815260200160002060003373ffffffffffffffffffffffffffffffffffffffff1673ffffffffffffffffffffffffffffffffffffffff168152602001908152602001600020549250925050915091565b60045481565b60606000808373ffffffffffffffffffffffffffffffffffffffff1673ffffffffffffffffffffffffffffffffffffffff16815260200190815260200160002060030180548060200260200160405190810160405280929190818152602001828054801561191f57602002820191906000526020600020905b81548152602001906001019080831161190b575b50505050509050919050565b60006020528060005260406000206000915090508060000160009054906101000a900473ffffffffffffffffffffffffffffffffffffffff169080600101805461197490612e57565b80601f01602080910402602001604051908101604052809291908181526020018280546119a090612e57565b80156119ed5780601f106119c2576101008083540402835291602001916119ed565b820191906000526020600020905b8154815290600101906020018083116119d057829003601f168201915b5050505050908060020160009054906101000a900460ff16908060040154908060050154905085565b6002602052816000526040600020602052806000526040600020600091509150505481565b6000806000806000808673ffffffffffffffffffffffffffffffffffffffff1673ffffffffffffffffffffffffffffffffffffffff16815260200190815260200160002090508060040154816005015482600501548360040154611a9f91906132a0565b935093509350509193909250565b600360003373ffffffffffffffffffffffffffffffffffffffff1673ffffffffffffffffffffffffffffffffffffffff16815260200190815260200160002060009054906101000a900460ff16611b39576040517f08c379a0000000000000000000000000000000000000000000000000000000008152600401611b3090612c3b565b60405180910390fd5b60008060003373ffffffffffffffffffffffffffffffffffffffff1673ffffffffffffffffffffffffffffffffffffffff1681526020019081526020016000209050600081600501548260040154611b9191906132a0565b905060008111611bd6576040517f08c379a0000000000000000000000000000000000000000000000000000000008152600401611bcd90613320565b60405180910390fd5b8160040154826005018190555060003373ffffffffffffffffffffffffffffffffffffffff1682604051611c0990613371565b60006040518083038185875af1925050503d8060008114611c46576040519150601f19603f3d011682016040523d82523d6000602084013e611c4b565b606091505b5050905080611c8f576040517f08c379a0000000000000000000000000000000000000000000000000000000008152600401611c86906133d2565b60405180910390fd5b3373ffffffffffffffffffffffffffffffffffffffff167f95674e7fbc16e976795472f9fc5fc2916b3bc6b7adc1958b59ba52379e937c7f83604051611cd59190612a85565b60405180910390a2505050565b60055481565b600360003373ffffffffffffffffffffffffffffffffffffffff1673ffffffffffffffffffffffffffffffffffffffff16815260200190815260200160002060009054906101000a900460ff16611d74576040517f08c379a0000000000000000000000000000000000000000000000000000000008152600401611d6b90612c3b565b60405180910390fd5b6000815111611db8576040517f08c379a0000000000000000000000000000000000000000000000000000000008152600401611daf9061343e565b60405180910390fd5b6103e881511115611dfe576040517f08c379a0000000000000000000000000000000000000000000000000000000008152600401611df5906134aa565b60405180910390fd5b60046000815480929190611e1190612e88565b91905055506040518060c0016040528060045481526020013373ffffffffffffffffffffffffffffffffffffffff16815260200182815260200142815260200160011515815260200160008152506001600060045481526020019081526020016000206000820151816000015560208201518160010160006101000a81548173ffffffffffffffffffffffffffffffffffffffff021916908373ffffffffffffffffffffffffffffffffffffffff1602179055506040820151816002019081611eda91906131ac565b506060820151816003015560808201518160040160006101000a81548160ff02191690831515021790555060a082015181600501559050506000803373ffffffffffffffffffffffffffffffffffffffff1673ffffffffffffffffffffffffffffffffffffffff16815260200190815260200160002060030160045490806001815401808255809150506001900390600052602060002001600090919091909150553373ffffffffffffffffffffffffffffffffffffffff166004547f8e40a51278abe2f4b410c0a96ff0bdd024b22666ca334062bf72afd596984bd683604051611fc5919061327e565b60405180910390a350565b600360003373ffffffffffffffffffffffffffffffffffffffff1673ffffffffffffffffffffffffffffffffffffffff16815260200190815260200160002060009054906101000a900460ff1661205c576040517f08c379a000000000000000000000000000000000000000000000000000000000815260040161205390612c3b565b60405180910390fd5b816001600082815260200190815260200160002060040160009054906101000a900460ff166120c0576040517f08c379a00000000000000000000000000000000000000000000000000000000081526004016120b790612d39565b60405180910390fd5b3373ffffffffffffffffffffffffffffffffffffffff166001600083815260200190815260200160002060010160009054906101000a900473ffffffffffffffffffffffffffffffffffffffff1673ffffffffffffffffffffffffffffffffffffffff1614612164576040517f08c379a000000000000000000000000000000000000000000000000000000000815260040161215b90613516565b60405180910390fd5b60008251116121a8576040517f08c379a000000000000000000000000000000000000000000000000000000000815260040161219f9061343e565b60405180910390fd5b6103e8825111156121ee576040517f08c379a00000000000000000000000000000000000000000000000000000000081526004016121e5906134aa565b60405180910390fd5b8160016000858152602001908152602001600020600201908161221191906131ac565b503373ffffffffffffffffffffffffffffffffffffffff16837fc7931b4f20484d9753f780534a76cc5a97feb26c3ca558bb2cb5fa326d8b133b84604051612259919061327e565b60405180910390a3505050565b8280548282559060005260206000209081019282156122a2579160200282015b828111156122a1578251825591602001919060010190612286565b5b5090506122af91906122b3565b5090565b5b808211156122cc5760008160009055506001016122b4565b5090565b6000604051905090565b600080fd5b600080fd5b6000819050919050565b6122f7816122e4565b811461230257600080fd5b50565b600081359050612314816122ee565b92915050565b6000602082840312156123305761232f6122da565b5b600061233e84828501612305565b91505092915050565b612350816122e4565b82525050565b600073ffffffffffffffffffffffffffffffffffffffff82169050919050565b600061238182612356565b9050919050565b61239181612376565b82525050565b600081519050919050565b600082825260208201905092915050565b60005b838110156123d15780820151818401526020810190506123b6565b60008484015250505050565b6000601f19601f8301169050919050565b60006123f982612397565b61240381856123a2565b93506124138185602086016123b3565b61241c816123dd565b840191505092915050565b60008115159050919050565b61243c81612427565b82525050565b600060c0820190506124576000830189612347565b6124646020830188612388565b818103604083015261247681876123ee565b90506124856060830186612347565b6124926080830185612433565b61249f60a0830184612347565b979650505050505050565b6124b381612376565b81146124be57600080fd5b50565b6000813590506124d0816124aa565b92915050565b6000602082840312156124ec576124eb6122da565b5b60006124fa848285016124c1565b91505092915050565b60006020820190506125186000830184612433565b92915050565b60006040820190506125336000830185612347565b6125406020830184612347565b9392505050565b600081519050919050565b600082825260208201905092915050565b6000819050602082019050919050565b61257c816122e4565b82525050565b600061258e8383612573565b60208301905092915050565b6000602082019050919050565b60006125b282612547565b6125bc8185612552565b93506125c783612563565b8060005b838110156125f85781516125df8882612582565b97506125ea8361259a565b9250506001810190506125cb565b5085935050505092915050565b600081519050919050565b600082825260208201905092915050565b6000819050602082019050919050565b61263a81612376565b82525050565b600061264c8383612631565b60208301905092915050565b6000602082019050919050565b600061267082612605565b61267a8185612610565b935061268583612621565b8060005b838110156126b657815161269d8882612640565b97506126a883612658565b925050600181019050612689565b5085935050505092915050565b600081519050919050565b600082825260208201905092915050565b6000819050602082019050919050565b600082825260208201905092915050565b600061270b82612397565b61271581856126ef565b93506127258185602086016123b3565b61272e816123dd565b840191505092915050565b60006127458383612700565b905092915050565b6000602082019050919050565b6000612765826126c3565b61276f81856126ce565b935083602082028501612781856126df565b8060005b858110156127bd578484038952815161279e8582612739565b94506127a98361274d565b925060208a01995050600181019050612785565b50829750879550505050505092915050565b600060a08201905081810360008301526127e981886125a7565b905081810360208301526127fd8187612665565b90508181036040830152612811818661275a565b9050818103606083015261282581856125a7565b9050818103608083015261283981846125a7565b90509695505050505050565b600060a08201905061285a6000830188612347565b6128676020830187612388565b818103604083015261287981866123ee565b90506128886060830185612347565b6128956080830184612347565b9695505050505050565b600060c0820190506128b46000830189612388565b81810360208301526128c681886123ee565b90506128d56040830187612433565b6128e26060830186612347565b6128ef6080830185612347565b6128fc60a0830184612347565b979650505050505050565b600080fd5b600080fd5b7f4e487b7100000000000000000000000000000000000000000000000000000000600052604160045260246000fd5b612949826123dd565b810181811067ffffffffffffffff8211171561296857612967612911565b5b80604052505050565b600061297b6122d0565b90506129878282612940565b919050565b600067ffffffffffffffff8211156129a7576129a6612911565b5b6129b0826123dd565b9050602081019050919050565b82818337600083830152505050565b60006129df6129da8461298c565b612971565b9050828152602081018484840111156129fb576129fa61290c565b5b612a068482856129bd565b509392505050565b600082601f830112612a2357612a22612907565b5b8135612a338482602086016129cc565b91505092915050565b600060208284031215612a5257612a516122da565b5b600082013567ffffffffffffffff811115612a7057612a6f6122df565b5b612a7c84828501612a0e565b91505092915050565b6000602082019050612a9a6000830184612347565b92915050565b60006020820190508181036000830152612aba81846125a7565b905092915050565b600060a082019050612ad76000830188612388565b8181036020830152612ae981876123ee565b9050612af86040830186612433565b612b056060830185612347565b612b126080830184612347565b9695505050505050565b60008060408385031215612b3357612b326122da565b5b6000612b4185828601612305565b9250506020612b52858286016124c1565b9150509250929050565b6000606082019050612b716000830186612347565b612b7e6020830185612347565b612b8b6040830184612347565b949350505050565b60008060408385031215612baa57612ba96122da565b5b6000612bb885828601612305565b925050602083013567ffffffffffffffff811115612bd957612bd86122df565b5b612be585828601612a0e565b9150509250929050565b7f55736572206e6f74207265676973746572656400000000000000000000000000600082015250565b6000612c256013836123a2565b9150612c3082612bef565b602082019050919050565b60006020820190508181036000830152612c5481612c18565b9050919050565b7f54697070696e6720616d6f756e74206d7573742062652067726561746572207460008201527f68616e2030000000000000000000000000000000000000000000000000000000602082015250565b6000612cb76025836123a2565b9150612cc282612c5b565b604082019050919050565b60006020820190508181036000830152612ce681612caa565b9050919050565b7f506f737420646f6573206e6f7420657869737400000000000000000000000000600082015250565b6000612d236013836123a2565b9150612d2e82612ced565b602082019050919050565b60006020820190508181036000830152612d5281612d16565b9050919050565b7f43616e6e6f742054697070696e6720796f7572206f776e20706f737400000000600082015250565b6000612d8f601c836123a2565b9150612d9a82612d59565b602082019050919050565b60006020820190508181036000830152612dbe81612d82565b9050919050565b7f4e487b7100000000000000000000000000000000000000000000000000000000600052601160045260246000fd5b6000612dff826122e4565b9150612e0a836122e4565b9250828201905080821115612e2257612e21612dc5565b5b92915050565b7f4e487b7100000000000000000000000000000000000000000000000000000000600052602260045260246000fd5b60006002820490506001821680612e6f57607f821691505b602082108103612e8257612e81612e28565b5b50919050565b6000612e93826122e4565b91507fffffffffffffffffffffffffffffffffffffffffffffffffffffffffffffffff8203612ec557612ec4612dc5565b5b600182019050919050565b7f4e487b7100000000000000000000000000000000000000000000000000000000600052603260045260246000fd5b6000612f0a826122e4565b915060008203612f1d57612f1c612dc5565b5b600182039050919050565b7f5573657220616c72656164792072656769737465726564000000000000000000600082015250565b6000612f5e6017836123a2565b9150612f6982612f28565b602082019050919050565b60006020820190508181036000830152612f8d81612f51565b9050919050565b7f557365726e616d652063616e6e6f7420626520656d7074790000000000000000600082015250565b6000612fca6018836123a2565b9150612fd582612f94565b602082019050919050565b60006020820190508181036000830152612ff981612fbd565b9050919050565b60008190508160005260206000209050919050565b60006020601f8301049050919050565b600082821b905092915050565b6000600883026130627fffffffffffffffffffffffffffffffffffffffffffffffffffffffffffffffff82613025565b61306c8683613025565b95508019841693508086168417925050509392505050565b6000819050919050565b60006130a96130a461309f846122e4565b613084565b6122e4565b9050919050565b6000819050919050565b6130c38361308e565b6130d76130cf826130b0565b848454613032565b825550505050565b600090565b6130ec6130df565b6130f78184846130ba565b505050565b5b8181101561311b576131106000826130e4565b6001810190506130fd565b5050565b601f8211156131605761313181613000565b61313a84613015565b81016020851015613149578190505b61315d61315585613015565b8301826130fc565b50505b505050565b600082821c905092915050565b600061318360001984600802613165565b1980831691505092915050565b600061319c8383613172565b9150826002028217905092915050565b6131b582612397565b67ffffffffffffffff8111156131ce576131cd612911565b5b6131d88254612e57565b6131e382828561311f565b600060209050601f8311600181146132165760008415613204578287015190505b61320e8582613190565b865550613276565b601f19841661322486613000565b60005b8281101561324c57848901518255600182019150602085019450602081019050613227565b868310156132695784890151613265601f891682613172565b8355505b6001600288020188555050505b505050505050565b6000602082019050818103600083015261329881846123ee565b905092915050565b60006132ab826122e4565b91506132b6836122e4565b92508282039050818111156132ce576132cd612dc5565b5b92915050565b7f4e6f2054697070696e6720746f20776974686472617700000000000000000000600082015250565b600061330a6016836123a2565b9150613315826132d4565b602082019050919050565b60006020820190508181036000830152613339816132fd565b9050919050565b600081905092915050565b50565b600061335b600083613340565b91506133668261334b565b600082019050919050565b600061337c8261334e565b9150819050919050565b7f5472616e73666572206661696c65640000000000000000000000000000000000600082015250565b60006133bc600f836123a2565b91506133c782613386565b602082019050919050565b600060208201905081810360008301526133eb816133af565b9050919050565b7f506f737420636f6e74656e742063616e6e6f7420626520656d70747900000000600082015250565b6000613428601c836123a2565b9150613433826133f2565b602082019050919050565b600060208201905081810360008301526134578161341b565b9050919050565b7f506f737420636f6e74656e7420746f6f206c6f6e670000000000000000000000600082015250565b60006134946015836123a2565b915061349f8261345e565b602082019050919050565b600060208201905081810360008301526134c381613487565b9050919050565b7f4e6f742074686520617574686f72206f66207468697320706f73740000000000600082015250565b6000613500601b836123a2565b915061350b826134ca565b602082019050919050565b6000602082019050818103600083015261352f816134f3565b905091905056fea26469706673582212200adb1bf35eff58f50b8b094b5807acd3ae0c7b63f84294a3ca114b39b4bb4d1864736f6c634300081c0033",
  "linkReferences": {},
  "deployedLinkReferences": {}
}